:020000040800F2
:100000009043002035020008294C0008E541000813
:10001000E14B0008010D0008115E0008000000001F
:10002000000000000000000000000000495500082A
:10003000491600080000000041500008F95500086A
:100040004F0200084F0200084F0200084F0200084C
:100050004F0200084F0200084F0200084F0200083C
:100060004F0200084F0200084F0200084F0200082C
:100070004F0200084F0200084F0200084F0200081C
:100080004F0200084F0200084F020008110D00083F
:10009000050D00084F0200084F0200084B1600082B
:1000A0004F0200084F0200084F0200084F020008EC
:1000B00085560008915600084F0200084F020008BC
:1000C0004F0200084F0200084F020008ED530008DD
:1000D0004F0200084F0200084F0200084F020008BC
:1000E0004F0200084F0200084F0200080000000005
:1000F0000000000000000000000000000000000000
:1001000000000000000000004F020008F953000842
:100110004F0200084F0200084F0200084F0200087B
:100120004F0200084F0200084F0200084F0200086B
:100130004F0200080000000000000000290D000828
:100140004F0200081D0D00084F0200084F02000872
:1001500000F002F800F05EF80AA090E8000C82447B
:100160008344AAF10107DA4501D100F053F8AFF258
:10017000090EBAE80F0013F0010F18BFFB1A43F085
:10018000010318476C7900008C7900000A444FF095
:10019000000C10F8013B13F0070408BF10F8014BE6
:1001A0001D1108BF10F8015B641E05D010F8016B2B
:1001B000641E01F8016BF9D113F0080F1EBF10F88F
:1001C000014BAD1C0C1B09D16D1E58BF01F801CBB2
:1001D000FAD505E014F8016B01F8016B6D1EF9D535
:1001E0009142D6D37047000000230024002500264A
:1001F000103A28BF78C1FBD8520728BF30C148BF8A
:100200000B6070471FB59DE8030000F047F91FBD64
:1002100010B510BD00F09EF91146FFF7F3FF05F091
:100220005DFF00F0BCF903B4FFF7F2FF03BC00F080
:10023000EDF900000948804709480047FEE7FEE75E
:10024000FEE7FEE7FEE7FEE7FEE7FEE7FEE7FEE786
:1002500004480549054A064B7047000081560008CE
:1002600051010008903D002090430020903F002065
:10027000903F002070B5064600F0F4F8056806F1DE
:100280000B0020F00704B4429CBF002070BD2B4639
:100290006A68BAB11068A04210D304F1080188421C
:1002A0003CBF5068586007D351681019416011680D
:1002B000091B016058601460101D70BD1346526820
:1002C000002AE7D12146284600F0D4F80028DED1E4
:1002D00070BD70B50446051F00F0C4F80068002C1E
:1002E00014BF446870BD002C18BFAC423CBF204610
:1002F0006468F8D301680A18AA4218BF456003D1A0
:100300002A6805461144016028684119A1421CBFB2
:100310006C6070BD6168696021680844286070BDC8
:1003200053EA020C00F069802DE9F04B4FF0000613
:10033000002B1FBFB3FA83F503FA05F424FA05F680
:100340005E4012BF1643B2FA82F502FA05F4C5F117
:1003500020051EBF22FA05FC44EA0C04203556EAAB
:10036000044C4FEA144418BF641C4FF000084FF0CF
:100370000009904271EB030C39D3002919BFB1FA7F
:1003800081F701FA07F6B0FA80F700FA07F6C7F12D
:1003900020071EBF20FA07FC46EA0C062037B6FBF2
:1003A000F4FCA7EB0507103F07F01F0BCBF120066D
:1003B0000CFA0BFB2CFA06F644BFB3460026202F9E
:1003C000A4BF5E464FF0000B5BEA060C08BF4FF07F
:1003D000010B19EB0B09ABFB027C48EB0608C01BB9
:1003E00006FB02CC0BFB03CC71EB0C01C1E70B4607
:1003F000024641464846BDE8F08B13B54FF0000079
:100400004FF00001AFF30080BDE81C4070474FF093
:10041000000200B5134694469646203922BFA0E854
:100420000C50A0E80C50B1F12001BFF4F7AF090760
:1004300028BFA0E80C5048BF0CC05DF804EB890051
:1004400028BF40F8042B08BF704748BF20F8022B94
:1004500011F0804F18BF00F8012B704770477047AC
:100460007047000000487047343D002070477047D7
:100470007047704738B504460A4600206946AFF316
:100480000080002808BF38BD02460099204600F0D1
:100490003FF8012038BD012000F054B8F8B5AFF3A3
:1004A0000080054600200C46102000BF0646A81913
:1004B000A0420DD9324669460020AFF30080070004
:1004C00008BF00F03FF80098A04218BF0546C419C5
:1004D000FFF7C8FF05600746F01D20F0070046192A
:1004E000284600F00AF8B44208BFF8BDA21B314606
:1004F0003868BDE8F84000F00BB800210160C0E9A1
:100500000110704710207047004870472C3D0020B4
:10051000034640688C46002818BF88423CBF03460B
:100520004068F8D318681844884207D00CF10300DB
:1005300020F00700001D411A521A0146081D0A60EA
:10054000FFF7C7BE10B500F039F8BDE8104000F065
:100550002FB870477546FFF7D7FFAE4605006946CE
:10056000534620F00700854618B020B5FFF770FE0F
:10057000BDE820404FF000064FF000074FF00008A4
:100580004FF0000B21F00701AC46ACE8C009ACE825
:10059000C009ACE8C009ACE8C0098D46704710B589
:1005A0000446AFF300802046BDE81040FFF73BBE95
:1005B000002801D000F02AB87047000010B50128CB
:1005C00005D0002103A000F027F8012010BD09A1EB
:1005D000F8E7000053494752544D454D3A204F75B6
:1005E00074206F662068656170206D656D6F72792B
:1005F000000000003A2048656170206D656D6F72E3
:100600007920636F727275707465640001491820F7
:10061000ABBEFEE72600020070B505460C460A2078
:1006200000E06D1C00F011F835B128780028F8D1F1
:1006300002E0641C00F009F814B120780028F8D119
:10064000BDE870400A20AFF3008008B569468DF818
:1006500000000320ABBE08BD70B504460068816889
:10066000C943C90716D1816821F00101816002F0F8
:1006700027FB054609E002F023FB401B022804D9B2
:1006800020688068C043C00706D020688068C043E7
:10069000C007F0D0002070BDA06A40F01000A0623A
:1006A000E06A40F00100E062012070BDF8B500266C
:1006B0000446009600688168C943C9072CD0816848
:1006C00041F001018160154815490068B0FBF1F067
:1006D00000E0401E00900028FBD102F0F1FA054630
:1006E00015E002F0EDFA401B022810D9206880685E
:1006F000C043C0070BD0A06A40F01000A062E06ABF
:1007000040F00100E06284F824600120F8BD206818
:100710008068C043C007E4D10020F8BD4803002032
:1007200040420F0000224FF40071014802F0C3BAAA
:100730000008014001225102014802F0BCBA000049
:100740000008014010B54FF40041034802F0AEFA32
:10075000002800D0012010BD000C014000224FF401
:100760000071014802F0A7BA0010014001225102B5
:10077000014802F0A0BA00000010014010B54FF48B
:100780008041034802F092FA002800D0012010BDF9
:10079000000C014010B504F055FCFFF7C3FFBDE8A5
:1007A0001040FFF7DBBF000070B53748817B072999
:1007B00068D1D0F820023549884201D1012100E0FA
:1007C0000021401C5CD0002001435BD03048007801
:1007D000002857D12F4C01228021204602F06BFACD
:1007E0004FF47A75284602F05BF9002280212046FA
:1007F00002F061FA6E10304602F052F901228021B7
:10080000204602F058FA284602F04AF900228021D8
:10081000204602F050FA304602F042F901228021CF
:10082000204602F048FA284602F03AF900228021D8
:10083000204602F040FA304602F032F901228021CF
:10084000204602F038FA284602F02AF900228021D8
:10085000204602F030FA304602F022F901228021CF
:10086000204602F028FA284602F01AF900228021D8
:10087000204602F020FA3046BDE8704002F010B980
:100880000120A1E770BD00005C370020FFDF0300FE
:100890009A7A0008001001400448007C4FF00101E2
:1008A00008B1002000E0012000F078BB5C37002098
:1008B00010B500F055FC02480178491C017010BDCC
:1008C0008002002010B5FFF765FFBDE8104004F07E
:1008D0004BBE000009480A49D0F82002884201D1E5
:1008E000012100E00021401C04D00020014303D07E
:1008F000FFF75ABF0120F9E700F0ACBE5C370020DB
:10090000FFDF03002DE9F0414F4C94F8C80258B1C5
:1009100094F8C802012802D0022805D102E0FFF7AE
:1009200025FF01E0FFF71AFF94F8C90258B194F8C7
:10093000C902012802D0022805D102E0FFF7FAFE21
:1009400001E0FFF7EFFE94F8C80200250726012812
:1009500003D194F8CA02012809D094F8CA0298B1C8
:1009600094F8CA0201280AD002280DD10AE0012019
:1009700084F83402A67384F8CD52BDE8F08104F007
:1009800069FB01E004F05EFB94F8CB022F4F68B1E5
:1009900094F8CB02012802D0022807D101E00122FD
:1009A00000E000228021384602F085F994F8CC025C
:1009B00058B194F8CC02012802D0022805D102E0F7
:1009C00000F074FE01E000F069FE94F8CD02A0B1E1
:1009D00094F8CD02012802D002280ED102E00A20AC
:1009E000A0730AE00320A073FFF7D4FE00F056FEC8
:1009F00000228021384602F05EF994F8CE0228B138
:100A000094F8CE02012801D10520A07394F8CD02FC
:100A1000022803D194F8CE0201280FD094F8CE0218
:100A20000128AAD194F8C802012807D194F8C90274
:100A3000012803D194F8CA0202289ED0A67384F834
:100A4000CD5284F8CE5298E75C3700200010014068
:100A50002DE9F04704F0A4FC29484178052902D289
:100A60004178491C4170274C274FDFF8A080B4F82B
:100A70002002000407D5FFF75DFEFFF777FEBDE813
:100A8000F04704F0DFBAE08806F038FA05460E4673
:100A9000208906F033FA0022B9463B4606F07EFA7A
:100AA0002A46334606F052F800224746434606F0EF
:100AB00039FA23D2C82001F0F3FF04F061FE06F0FA
:100AC000E7FDE08004F096FA06F0E2FD2081E08880
:100AD00006F014FA05460E46208906F00FFA0022A9
:100AE0004B4606F05BFA2A46334606F02FF8002202
:100AF0003B4606F017FA01D20620A073BDE8F08746
:100B0000800200205C3700200000594000C05740A0
:100B100010B5FFF73FFE04F027FD0948032181735C
:100B2000084C6178052908D2012180F83312B0F809
:100B30002002000401D400F08DFD0020607010BD83
:100B40005C3700208002002070B5404C0220A0736A
:100B5000D4F820123E4D00294FF001024FF08001E1
:100B6000284643D002F0A7F8642001F099FF002244
:100B70008021284602F09FF8322001F091FF0122E7
:100B80008021284602F097F8642001F089FF0022B6
:100B90008021284602F08FF8322001F081FF0122E7
:100BA0008021284602F087F8642001F079FF0022B6
:100BB0008021284602F07FF8322001F071FF0122E7
:100BC0008021284602F077F8642001F069FF0022B6
:100BD0008021284602F06FF8322001F061FF0122E7
:100BE0008021284602F067F8642003E002F063F8F1
:100BF0004FF4FA7001F054FF00228021284602F0E1
:100C00005AF804F0BDFD04F0F5F900F0FFFB00F028
:100C1000C9FB0E4800F090FB03F018FB0D49D4F817
:100C20002002884201D1012100E00021401C0AD0AD
:100C30000020014301D00720A073A07B072801D02A
:100C40000320A07370BD0120F3E700005C37002093
:100C500000100140FFDF030010B504F085FC04F034
:100C600037F8002822D0144CA07B03281ED103F0B3
:100C7000EBFF04F02DF8002818D0A07B032815D135
:100C800004F072FB04F048FB00280FD00420A0738E
:100C90000A480B49406889680AE082688A4206D19E
:100CA000002101704FF4FA718180418010BD00690C
:100CB0000028F2D110BD00005C3700207002002037
:100CC000A83600200D48807BC01E082815D2DFE81A
:100CD00000F00406080A0C0E1012FFF7BDBF04F066
:100CE0001BBBFFF7B5BEFFF713BFFFF7F3BDFFF761
:100CF000DFBDFFF7E7BDFFF705BE70475C3700209B
:100D0000FEE70000014801F048BA00009C3B0020CB
:100D1000014801F042BA00009C3B0020014801F06C
:100D20003CBA0000C43B0020014801F036BA000084
:100D3000C43B00202DE9FF4F1188DDE90E9B19808F
:100D40001188A9F800100D99824600200880984665
:100D50001746ABF800000BE007EBC01140F6AC53B0
:100D60000A889A4200D84A88401CA1F87A20C0B26A
:100D70005045F1D300263CE0002434E007EBC615D3
:100D8000B9F8001035F8140088420BD2B0F5FA6FAC
:100D900008D9A9F8000021463046019A03F045FF22
:100DA000ABF8000035F81400B8F8001088420CD9F0
:100DB00041F23011884208D2A8F80000214630469E
:100DC000019A03F032FF0D99088035F81400B5F848
:100DD0007A10884205D240F6AC51884201D9A5F874
:100DE0007A00641CE4B20198805DA042C6D8761CEB
:100DF000F6B25645C0D3BDE8FF8F70B50C46054628
:100E000005F056FD03F0C2FB03F0A5FA284605F0F5
:100E10004FFD00221146022003F005FB03F0D2FB38
:100E200003F0A4FA284605F043FD22462946002097
:100E300003F078FCBDE8704003F0A8BB2DE9F04357
:100E4000994600241BE0002609EBC415334602EB4B
:100E500004274FF00A0C2E620CE007EB4306F68BDA
:100E6000B6FBFCF625F81360D5F820805B1C4644E1
:100E7000DBB22E620E5D9E42EFD8641CE4B2844267
:100E8000E1D3BDE8F08300000C4A10B510680C49AE
:100E90008B6803EB00100B4B88605C42984204DBCC
:100EA000204488605089401E05E0A04204DC1844BC
:100EB00088605089401C508110BD00005C370020C4
:100EC00000000020000B010330B589B004222F4937
:100ED0000892CDE9031200240822CDE905422146FB
:100EE0006A4601280AD001208DF8040000910520EF
:100EF0001154401CC0B20828FAD335E0244BB3F893
:100F00001C02000A8DF80000B3F81C028DF80100E5
:100F10008DF8041005201154401CC0B20828FAD3E3
:100F20001C480278052A03D28DF802100F210CE02C
:100F300002780A2A03D28DF80210192105E00278FE
:100F40000F2A08D28DF8021023218DF803100178A2
:100F5000491C017008E0B3F81E02000A8DF8020077
:100F6000B3F81E028DF803004FF47A7508AB6A4699
:100F700002A9094800F0A8FF002804D0AC4202D220
:100F8000641CA4B2F2E709B030BD0000F4E5061815
:100F90005C37002000000020C43B002038B502224E
:100FA00000910123D101404800F0C0F83E480024E0
:100FB000012323224FF482711430009400F0B6F81C
:100FC00001230C224FF494713848009400F0AEF8DD
:100FD0003648012306224FF49D716030009400F0E2
:100FE000A5F8324801231A464FF49A71C030009494
:100FF00000F09CF82D480123032240F23511C8303F
:10100000009400F093F8294801231A464FF49C718C
:10101000DA30009400F08AF8244801231A4640F29E
:101020003911DE30009400F081F8204801231A467F
:101030004FF4A071E230009400F078F81B480123CF
:10104000032240F24111EC30009400F06FF80123CC
:1010500003224FF4A2711648009400F067F8144878
:1010600001231A4640F247111530009400F05EF853
:101070000F4801231A464FF4A4711E30009400F06B
:1010800055F801230A224FF4B8710A48009400F081
:101090004DF80848012304224FF4C0712830009411
:1010A00000F044F838BD00005C3700209038002084
:1010B000923900201C3B00202DE9F04188B0804689
:1010C0000120069002200024079008200091CDE91D
:1010D0000340CDE901141E4627464FF47A75012AD4
:1010E00002D00AE0641CA4B206AB424669460D4831
:1010F00000F0EAFE08B1AC42F4D300240297012EBE
:1011000004D008B0BDE8F081641CA4B207AB42462D
:101110006946054800F0D8FE0028F2D0AC42F3D36F
:10112000EFE700009C3B0020C43B00202DE9F04786
:10113000984617460D4606460024DDF820900AE042
:101140004B46424629463046FFF7B6FF6D1C641CED
:10115000ADB2E4B20836BC42F2D3BDE8F08700007D
:101160002DE9F041394C2068092641F2883510F507
:10117000FA7F09DBE08841F20271884204D3B4F8B7
:101180002A01A84200D2A6733148012700786428BA
:1011900002D9207C012806D0FFF7F0FA012808D0F8
:1011A00084F834720CE084F82E72B4F82002400502
:1011B00009E0FFF7C7FA012802D103F00FFF28B1B9
:1011C000D4F82002C003002808DA37E094F8260299
:1011D000012806D194F82002400702D400F03AFA20
:1011E0002CE094F8240201280AD1B4F8200200046B
:1011F00006D5FFF79FFAFFF7B9FA03F023FF1DE0CA
:1012000094F82402012819D194F82002C00715D1BE
:10121000B4F82A01A84211D2FFF7BCFA04F0A4F9ED
:10122000A07B07280AD0A673A088A0F29F100028F0
:1012300001DD64206081074900200870A07B072839
:1012400002D00120BDE8F0810020FBE75C370020E0
:1012500080020020000000202DE9F80135490868CF
:10126000642290FBF2F0ADF80000BDF90000002808
:1012700004DABDF800004042ADF80000887B01258B
:1012800002240323042205280DD0887B082807D1D7
:10129000B1F87002BDF90060B04230DA81F82D5229
:1012A000BDE8F8017047B1F86862BDF900702148E7
:1012B000BE42D0F8200202DA81F82C5207E0B1F8E1
:1012C0006A52BDF90060B54207DA81F82C42C005C8
:1012D000E6D4BDE8F80100F0BDB9B1F86C42BDF943
:1012E0000050AC4202DA81F82C32F0E7B1F86E32ED
:1012F000BDF90040A342D3DA81F82C22E7E7B1F828
:101300007202BDF90050A84202DA81F82D42C7E707
:10131000B1F87402BDF90040A04202DA81F82D3222
:10132000BEE7B1F87602BDF900309842B8DA81F82C
:101330002D22B5E75C370020FEB516490E2004F0DB
:101340006DFB15480090134B05220E21134804F045
:10135000BBFA114A05210E2004F07AFB104C05223D
:10136000261FA51E0096CDE90154A31F0E210A4891
:1013700004F074FAA11E094A081F05F017F9009637
:10138000CDE90154A31F0E220349044805F09AF841
:10139000FEBD0000980A0020500300205C370020AA
:1013A000220000207FB514490E20FFF726FD124AC7
:1013B000124B02F560610E20FFF740FD104D0F4A01
:1013C000AC1EA61E0096231F0E490E20CDE9014536
:1013D000FFF7B0FC21460C4A081F05F089F9201FD1
:1013E000CDE90006074B0E2204490748CDE9024526
:1013F00005F096F87FBD0000980A002050030020F9
:101400001A000020981800205C37002010B504F066
:1014100047FE0E21214803F0E5FB21490E2003F091
:10142000BFF81F490E2002F083FF0E2005F040FA9E
:101430001B490E2002F0A6FF19490E2002F0C2FF40
:10144000002218490A200E2A23D2DFE802F00709F9
:101450000B0D0F11131517191B1D1F21087018E014
:10146000487016E0887014E0C87012E0087110E04F
:1014700048710EE088710CE0C8710AE0087208E05B
:10148000487206E0887204E0C87202E0087300E067
:101490004873521CD2B20E2AD5D310BD500300207F
:1014A000980A00209818002010B504F0F9FD0E21CC
:1014B000614803F097FB002260490A200E2A23D2DC
:1014C000DFE802F007090B0D0F11131517191B1D8B
:1014D0001F21087018E0487016E0887014E0C8708A
:1014E00012E0087110E048710EE088710CE0C871DC
:1014F0000AE0087208E0487206E0887204E0C872E8
:1015000002E0087300E04873521CD2B20E2AD5D311
:101510004B490E2003F044F849490E2002F008FF21
:101520000E2005F0ABF946490E2002F02BFF44498E
:101530000E2002F047FF04F019FD04F043FD414C7A
:101540000120A0734FF45E7060810020207401467A
:1015500004EB41029082491CC9B29029F8D30021C2
:1015600004EB4102A2F83401491CC9B26029F7D347
:101570000021621882F8FC01491CC9B21229F8D373
:10158000A4F8F401A4F8F601A4F8F801A4F8FA010B
:1015900084F80E0284F80F0284F8100284F8110215
:1015A00084F8120284F8130284F8140284F82402E6
:1015B00084F8250284F8260284F8270284F82A0297
:1015C00084F82B0284F8280284F8290284F82C027B
:1015D00084F82D0284F82E0284F82F0284F8300259
:1015E00084F8310284F8320284F8330284F8340239
:1015F00084F835020021621882F83602491CC9B20B
:101600001529F8D30021621882F84B02491CC9B28F
:101610000C29F8D3E0734FF4AF7001F041FA04F0F5
:1016200001FB41F27070A4F81C021E20A4F81E02F7
:10163000BDE8104000F094B8500300209818002036
:10164000980A00205C37002070474FF4807001F04A
:101650003BBA000010B50C4CA07B0A2812D00B48F6
:10166000007820B901228021094801F024FB0022E2
:101670000421084801F01FFB0720A073BDE81040BB
:10168000FFF788B810BD00005C3700209A7A000888
:10169000001001400008014072B6FEE700224FF43E
:1016A0008061014801F007BB00080140012291025E
:1016B000014801F000BB0000000801407CB50FA00C
:1016C0000F4C0068009000220421204601F0F3FA3C
:1016D0004FF47A752B46012269460A4802F09CF9BC
:1016E0002B46012201A9074802F0F0F8012204214B
:1016F000204601F0E0FA9DF804007CBD05000000E2
:1017000000140140443C0020F8B5044603208DF845
:101710000000080C8DF80100080A8DF802000E4E3A
:1017200015468DF8031000220421304601F0C3FA5B
:101730004FF47A773B4604226946084802F06CF978
:101740003B462A462146054802F0C0F80122042102
:10175000304601F0B0FAF8BD00140140443C0020CE
:10176000042291020148FFF7CFBF00007C3900201E
:1017700010B501224FF440510348FFF7C5FF02485E
:101780000F38C07B10BD00006B37002038B5044611
:1017900000F026F820208DF8000020098DF80100C7
:1017A00020018DF8020000200B4C8DF8030002464A
:1017B0000421204601F07FFA4FF47A73042269462F
:1017C000064802F029F901220421204601F073FAAB
:1017D00000F024F838BD000000140140443C002013
:1017E00038B50BA00B4C0068009000220421204665
:1017F00001F061FA4FF47A7301226946064802F05B
:101800000BF901220421204601F055FA38BD0000F1
:101810000600000000140140443C002010B5FFF712
:101820004DFFC007FBD110BD2DE9F74F0D4682B02B
:1018300016460024DFF8C0B04FF47A7AC5F30749A2
:10184000C5F30728EFB222E0FFF7CAFF02208DF8A8
:1018500000008DF801908DF802808DF80370002251
:101860000421584601F027FA5346042269462348CA
:1018700002F0D2F8534632462048029902F0CCF8E2
:1018800001220421584601F016FA641CA4B2B4EBFC
:10189000162FD9D3FFF7C2FF16F0FF0F26D0FFF7A0
:1018A0009FFF05EB042002218DF80010010C8DF83C
:1018B0000110010A8DF802108DF8030000220421A6
:1018C0005C46584601F0F7F95546534604226946EE
:1018D0000A4802F0A1F82B4632460848029902F065
:1018E0009BF801220421204601F0E5F9FFF796FF5D
:1018F00005B0BDE8F08F000000140140443C00201A
:1019000010B50120FFF742FF0422BDE8104091020C
:101910000148FFF789BF00007C39002010B5032083
:10192000FFF734FFBDE8104001224FF44051014859
:10193000FFF77ABF6B37002010B50420FFF726FFB2
:10194000BDE8104070224FF480410148FFF76CBFA2
:10195000B4390020F8B500260446009690F824001B
:1019600001280BD0012084F824002046FEF774FEE5
:101970002046FEF79BFE070002D050E00220F8BD93
:10198000A06A20F4885040F00200A062022001F01A
:1019900035FA25490968B1FBF0F0400000E0401E2F
:1019A00000900028FBD12068816841F00801816027
:1019B00001F086F9054608E001F082F9401B0A288B
:1019C00003D920688068000715D420688068000764
:1019D000F2D42068816841F00401816001F070F95F
:1019E000054612E001F06CF9401B0A280DD9206869
:1019F0008068400709D5A06A20F0020040F010007E
:101A0000A06284F824600120F8BD20688068400747
:101A1000E8D4A06A20F0020040F00100A06284F83F
:101A200024603846F8BD000048030020F8B50023C4
:101A3000009390F824201C46012A12D0012280F83D
:101A400024204A681F26072A0DD205686F6B521E94
:101A500002EB82029640B7430E68964037436F63AD
:101A600019E00220F8BD05680D2A0AD22F6BD21F9B
:101A700002EB82029640B7430E68964037432F63CD
:101A800009E0EF6A0D3A02EB82029640B7430E6816
:101A900096403743EF620A68072605680A2A0AD388
:101AA000EF680A3A02EB42029640B7438E689640CE
:101AB0003743EF6008E02F6902EB42029640B743DC
:101AC0008E68964037432F610A68102A01D0112A88
:101AD00020D1124D0268AA4217D195682D0219D45F
:101AE000956845F4000595600968102912D10C49E4
:101AF0000C4A0968B1FBF2F101EB8101490000E0F9
:101B0000491E00910029FBD104E0816A41F02001C7
:101B10008162012380F824401846F8BD002401406A
:101B20004803002040420F00806A70470068C06C84
:101B3000704700002DE9F0414FF0000604003546E3
:101B40007DD0A06A002728B9E76284F82470204677
:101B500000F07EF82046FEF77FFDA16AC90600D49A
:101B600020B1A06A40F01000A06268E0A16A21F4F0
:101B7000885141F00201A1626268E169237B0A4356
:101B800046EA43010A43A1684FF48076B14208D087
:101B9000012906D0002194F814C0BCF1010F02D035
:101BA0000AE03146F7E7F3B1A36A43F02003A362EA
:101BB000E36A43F00103E3622368D3F804C02CF422
:101BC000694C4CEA010CC3F804C021688B68DFF84B
:101BD00074C003EA0C0313438B60A168B1420BD0BD
:101BE000012909D00CE0DFF860C0A3690CEB433396
:101BF0000B4343F40061DFE7218A0D05A5F580154D
:101C00002168CB6A23F470032B43CB622168896877
:101C10000E4B1940914208D1E762A16A21F00201FE
:101C200041F00101A162BDE8F081A06A20F002004C
:101C300040F01000A062E06A40F00100E062012084
:101C4000F1E70000FDF7E1FF00E0FFFFFE0E1FFFE0
:101C500000B585B0002100910191029103910068C7
:101C60000E49884217D10E48816941F400718161A3
:101C7000816901F400710491816941F0040181617D
:101C80008069694600F004000490032000900190F0
:101C9000044800F025FF05B000BD0000002401400D
:101CA00000100240000801402DE9F8434FF0000801
:101CB0000D460446CDF8008001F002F80746206882
:101CC0008168C90508D5A06A40F02000A06284F8A8
:101CD00024800120BDE8F8834168C90503D4C06AA7
:101CE00010F4700F29D0022001F088F83A490968F1
:101CF000B1FBF0F620680169384A11424FEA6202EE
:101D00004FEAA2131ED1C1684FEA621C11EA0C0F00
:101D100018D10169114224D1C068184221D1142080
:101D200022E0681C09D025B100F0CAFFC01BA84200
:101D300003D920680068800724D5206800688007E0
:101D4000EFD52CE00169114202D1C168194206D0D9
:101D5000026923490A4206D1C068084203D15420CF
:101D600002E0292000E0FC204643009815E0681CB2
:101D700010D025B100F0A4FFC01BA8420AD90098DA
:101D8000B04207D2A06A40F00400A06284F8248028
:101D900003209FE70098401C0090B042E7D32168E1
:101DA0006FF012000860A06A40F40070A062206822
:101DB0008068C0F3424007280CD1207B50B9A06A4C
:101DC00020F48070A062A06AC00403D4A06A40F02E
:101DD0000100A06200207DE74803002024499224EE
:101DE0004992240070B5044690F8240001280DD0D3
:101DF000012084F824002046FEF758FC01004FF033
:101E0000000205D084F82420084670BD022070BD71
:101E1000A06A40F20123984340F48070A0621F4DF5
:101E200020681F4BA84218D11E6816F4702F14D0DA
:101E3000A66A46F48016A6621E68760505D5A66ACF
:101E400026F4005646F48056A662A66AF6040AD521
:101E5000E66A26F00606E66206E0A66A26F4801622
:101E6000A6624668E9E7E26284F824206FF0020285
:101E7000026020688268C2F34242072A05D1A84264
:101E800008D11A6812F4702F04D0826842F48012CC
:101E90008260B9E7826842F4A002F9E700280140B5
:101EA0000424014090F82020012A07D0022A05D0FE
:101EB000416A41F480214162012070470068426913
:101EC0000A43426100207047F0B590F82050046842
:101ED000A468012D05D0022D03D0416A41F4802170
:101EE00057E014F0406F01D1E5004FD5C4F3016411
:101EF0000125A5401D608B684FF4C0759BB1CE686D
:101F000033434E6843EAC603066805EB0417F351F2
:101F10004FF4C273076803EB04130E69FE50097D8A
:101F2000012905D009E00E88CB6843EA4653EBE768
:101F30000168CE5846F48076CE501179D37956791F
:101F400041EA036193791B0443EA062319434FF4E2
:101F5000C676036806EB041699511178D37841EAE6
:101F60000361937852781B0443EA022211434FF431
:101F7000C473026803EB0413D150006805EB04112D
:101F8000425842F0010242500020F0BD416A41F443
:101F9000001141620120F0BD10B590F82020012A07
:101FA00007D0022A05D0416A41F480214162012014
:101FB00010BD3B48D0F8002242F00102C0F80022D8
:101FC000D0F8002222F47C52C0F80022D0F800227F
:101FD0004B6A42EA0322C0F800220A7D02F01F0386
:101FE00001229A40D0F81C329343C0F81C32CB69CE
:101FF000B3B9D0F80C329343C0F80C328C894B68DB
:1020000064F31F434C6900EBC404C4F840320C89EC
:102010000B6864F31F434C6900EBC404C4F84432FA
:10202000CB69012B16D1D0F80C321343C0F80C3217
:102030000C884B6864F31F434C6900EBC404C4F87C
:1020400040320C89CB6864F31F434C6900EBC40435
:10205000C4F844328B69002BD0F804320ED01343FD
:10206000C0F804320B69002BD0F8143208D01343A7
:10207000C0F81432096A012904D008E09343EFE75D
:102080009343F5E7D0F81C121143C0F81C12D0F8A6
:10209000001221F00101C0F80012002010BD000064
:1020A00000640040704770B590F82040012C05D0C6
:1020B000022C03D0416A41F4802128E0046809B36E
:1020C0002469A40720D04FF4D874056804EB0114E8
:1020D0002D5915F00405956005682D591AD0ED08A5
:1020E000556005682C5904F00204D4604FF4DA748A
:1020F000056804EB01142E5906F00F06082E0CD3C8
:1021000008250DE0E468DCE7416A41F40011416212
:10211000012070BD6D0D1560E3E72D5905F00F0529
:10212000156105682D59C5F30725956105682C597A
:10213000240C54614FF4DC72046802EB0112A458C1
:102140001C700468A458240A5C700468A458240C09
:102150009C700468A258120EDA704FF4DE720468A4
:1021600002EB0112A4581C710468A458240A5C7183
:102170000468A458240C9C710468A258120EDA71E9
:10218000006829B1016941F020010161002070BDA2
:10219000C16841F02001C160F8E72DE9F05F054614
:1021A000006800244669D0F804908768D0F80CB025
:1021B000D0F810A0D0F81880F10748D0F90714D053
:1021C00001218160B80703D5284600F0CAFB0CE066
:1021D000780702D54FF4006407E0380702D54FF4C2
:1021E000805402E0284600F0BBFBF80516D52968AC
:1021F0004FF480708860B80503D5284600F0B3FB23
:102200000CE0780502D544F4005407E0380502D507
:1022100044F4804402E0284600F0A4FBF80316D5FD
:1022200029684FF480308860B80303D5284600F051
:102230009CFB0CE0780302D544F4004407E038032B
:1022400002D544F4803402E0284600F08DFB3007CC
:1022500007D55FEACB6004D52968102044F40074E8
:10226000C86070074FF0080707D55FEA0B7004D508
:102270002868C760284600F0B1F9B00706D528687D
:10228000C068800702D0284600F0AAF9700607D57A
:102290005FEACA6004D52968102044F480640861AC
:1022A000B00607D55FEA0A7004D52868076128469A
:1022B00000F0D0FAF00606D528680069800702D041
:1022C000284600F0C9FAB00308D55FEAC96005D511
:1022D000296810204860284600F016FBF00307D557
:1022E0005FEA097004D528684760284600F03EFB85
:1022F000300446D55FEA497040D5F00504D55FEA61
:10230000C87001D044F00104B00504D55FEA8870BC
:1023100001D544F00204700504D55FEA487001D588
:1023200044F00404300529D518F0700F26D008F0C9
:102330007000402815D006DC102809D020280AD0CB
:10234000302816D10AE050280ED0602811D10EE0B6
:1023500044F008040DE044F010040AE044F02004C6
:1023600007E044F0400404E044F0800401E044F459
:1023700080742868816921F07001816129680420D6
:102380004860002C05D0686A204368622846FFF741
:1023900089FEBDE8F09F70B5040003D094F82000DA
:1023A00010B104E0012070BD204600F081F82068E3
:1023B000016841F00101016000F082FC054605263C
:1023C00004E000F07DFC401B0A2811D8206840681A
:1023D000C007F6D02068016821F00201016000F01A
:1023E0006FFC05460BE000F06BFC401B0A2806D989
:1023F000606A40F40030606284F82060D2E72068B0
:1024000040688007EFD4207E0128206801683DD015
:1024100021F080010160607E01282068016838D0C9
:1024200021F040010160A07E01282068016833D0BE
:1024300021F020010160E07E0128206801682ED093
:1024400041F010010160207F01282068016829D037
:1024500021F008010160607F01282068016824D014
:1024600021F004010160D4E902010843D4E9041217
:10247000114308436168491E08432168C861002070
:102480006062012084F82000002070BD41F08001CE
:10249000C0E741F04001C5E741F02001CAE721F063
:1024A0001001CFE741F00801D4E741F00401D9E77A
:1024B00070B586B00021434B0091019102910391C8
:1024C000016818683E4E022403253F4A401CB14271
:1024D00031D11860012807D1D06940F00070D06177
:1024E000D06900F000700490906940F004009061A1
:1024F0009069364E00F0040004904FF400600090A4
:102500006946304600F0ECFAB014CDE900046946A3
:102510000395304600F0E4FA00221146132000F043
:102520003BFC132000F02AFC00221146142000F08E
:1025300033FC14203FE0264EB1423ED1D16941F038
:102540008061D161D169012801F080610491186036
:1025500007D1D06940F00070D061D06900F0007000
:102560000490906940F0080090619069194E00F065
:1025700008000490202000906946304600F0B0FA30
:102580004020CDE9000469460395304600F0A8FAE2
:102590001149486840F0E8604860002211463F2039
:1025A00000F0FAFB3F2000F0E9FB00221146412039
:1025B00000F0F2FB412000F0E1FB06B070BD00002E
:1025C0000064004038030020001002400008014071
:1025D00000680040000C014000000140704700000E
:1025E0002DE9F0438DB0002504460395049501AB19
:1025F00005AA2946FFF757FD20B1FFF74DF80DB0AA
:10260000BDE8F0838E488442F9D105988D4CA0F541
:10261000807104F516774FF4A87901390BD1E57371
:10262000FFF77CF903F0FEFA01230E2249463846F3
:102630000095FEF77BFD0598B0F5997F11D19DF8C7
:1026400004009DF805109DF8072000EB01219DF87E
:102650000600000400EB02600844C4F82002FFF703
:102660004FF9794B0598598801264FF4A77888428D
:1026700023D100200DF1040C59681CF8002001F84A
:10268000012B401CC0B259600828F5D35888401C63
:1026900058805888404510D34FF4A07058805F6030
:1026A000E6730320FFF772F8664801224FF44051A9
:1026B0000F30FFF7B9F8FFF73FF90598404506D10D
:1026C00001230E22494638460095FEF72FFD059856
:1026D00048451ED19DF8040084F8C8029DF8050005
:1026E00084F8C9029DF8060084F8CA029DF8070024
:1026F00084F8CB029DF8080084F8CC029DF809000C
:1027000084F8CD029DF80A0084F8CE020A20A07356
:1027100075E7A0F5807140F25F1751391FD141F282
:102720007070A4F81C021E20A4F81E02B4F81C024B
:102730008DF80C00B4F81C02000A8DF80D00B4F8F6
:102740001E028DF80E00B4F81E02000A8DF80F006C
:1027500001231A46394603A80095FEF7E7FC0598C1
:10276000B0F5A97F21D0A0F58071533918D1B4F804
:102770001C028DF80C00B4F81C02000A8DF80D0044
:10278000B4F81E028DF80E00B4F81E02000A8DF88F
:102790000F0001231A46394603A80095FEF7C6FC30
:1027A0000599B1F5AA7F11D018E09DF804009DF8B5
:1027B000051000EB0120A4F81C029DF806009DF80E
:1027C000071000EB0120A4F81E0218E704202218CD
:1027D00082F82052401CC0B21628F8D31B48A1F53D
:1027E0008072553A00D10670B1F5AB7F26D0A1F5C5
:1027F0004070C2388CD19DF807009DF804109DF8F8
:10280000062000EB01609DF80510090401EB022190
:102810000844A0F57F41FF390DD000F10040206051
:102820000B480570A07B052802D0A07B0828CCD1DE
:10283000FEF72AFBE3E684F83162E0E60570DEE6A7
:102840009C3B00205C370020000000207802002024
:10285000680200207047000070B58AB004466B46DD
:1028600002AA0121FFF71FFC18B1FEF715FF0AB0FD
:1028700070BD20488442FAD11F4903981F4C00259F
:102880001F4E88422CD19DF801009DF8001000EBEE
:102890000120A4F816029DF803109DF8020001EB38
:1028A0000020A4F818029DF8040084F81A02012000
:1028B000207414494878142801D8401C487094F8B2
:1028C0001A0210280BD094F81A0240B14878142844
:1028D00005D3B4F82002400501D4FEF7BBFE3570E5
:1028E00005490398491C8842C1D1022020743570E3
:1028F000BDE70000C43B0020E550FF185C37002016
:102900008002002000000020704770B5044690F857
:102910002000012804D0606A40F40020606217E0C3
:10292000022084F820002068016821F00101016084
:1029300000F0C6F905460DE000F0C2F9401B0A2878
:1029400008D9606A40F400306062052084F82000F5
:10295000012070BD20684068C007EDD1606270BD85
:102960007047704770477047704770477047000066
:102970002DE9F05F90F821100024022903D00421F2
:102980008163012485E001680A6822F00E020A6072
:1029900001680A6822F001020A603F4E3E4FB215FC
:1029A000DFF8F4C0DFF8F090DFF8ECA0DFF8E8B073
:1029B000DFF8E4E00168783F13011502ACF1640C24
:1029C000A9F15009AAF13C0AABF1280BAEF1140EA3
:1029D0004FF48018B14227D9B9420ED0614512D0C8
:1029E00049451DD0514518D0594518D0714501D1E0
:1029F000424615E0294EB14201D1012210E0274E96
:102A00001436B14201D110220AE0244E2836B142D8
:102A100006D0224A3C32914201D11A4600E02A46B1
:102A20001E49091F0A602BE0B94213D0614517D037
:102A3000494522D051451DD059451DD0714501D180
:102A400042461AE0B14202D14FF0807215E0134EB7
:102A5000B14201D1012210E0104E1436B14201D131
:102A600010220AE00D4E2836B14206D00B4A3C3205
:102A7000914201D11A4600E02A46074980394A604E
:102A8000012180F82110002180F82010416B01B154
:102A900088472046BDE8F09F8000024008040240BD
:102AA00070B5044600F00CF90546601C02D00448DD
:102AB0000078044400F004F9401BA042FAD370BD32
:102AC0003C03002070470000044910B50A68024228
:102AD00002D00860FFF7F6FF10BD000014040140AB
:102AE0002DE9F84FDFF8A4910024A9F1040B234647
:102AF0004FF00F0809F1040AABF1040EBEE0012704
:102B0000A7403A40BA4272D1DFF884C14D68A5EBC4
:102B10000C0665452BD00DDC032D34D005DC35B318
:102B2000012D19D0022D2FD11BE0112D16D0122D01
:102B30002AD119E0B6F5881F19D006DCB6F5803F1A
:102B400015D0B6F5801F1FD111E0B6F5001F0ED0CD
:102B5000B6F5041F18D10AE0CB6815E0CB681B1D41
:102B600012E0CB6808330FE0CB680C330CE08B68C5
:102B70002BB1012B4FF0080303D0476104E004237D
:102B800002E0076100E00023FF2A01D8064601E0C9
:102B900000F104064FEA840501D9A5F12005376844
:102BA00008FA05FC27EA0C0703FA05F547EA0507CA
:102BB00037604D68ED0060D5364DAE6946F00106D0
:102BC000AE61AD6924F0030605F001050095324DB4
:102BD0007719BE68A5072D0F08FA05FC26EA0C0632
:102BE000DFF8B8C0604503D14FF0000C17E044E0B7
:102BF000DFF8ACC0604502D14FF0010C0FE0DFF808
:102C0000A4C0604502D14FF0020C08E0DFF898C084
:102C1000604502D14FF0030C01E04FF0040C0CFAB8
:102C200005FC4CEA060CC7F808C04D68D9F80060EE
:102C3000ED024D4601D5164300E096432E604D68E7
:102C4000DAF80060AD02554601D5164300E0964320
:102C50002E604D68DBF80060AD035D4601D516437C
:102C600000E096432E604D68DEF80060ED03754687
:102C700001D5164300E096432E60641C0A6832FAC0
:102C800004F57FF43CAFBDE8F88F00000804014074
:102C90000000111000100240000001400008014037
:102CA000000C014000100140001401408068084001
:102CB00000D0012070470AB1016170470904FBE7A9
:102CC00001488068704700003C030020024881688A
:102CD00002781144816070473C030020074810B51A
:102CE000016841F010010160032000F075F8002038
:102CF00000F006F800F024F8002010BD002002408B
:102D000070B50D4D04464FF47A712878B1FBF0F0A0
:102D10000A490968B1FBF0F001F027F848B9102C16
:102D200007D200222146501E00F036F800206C60C9
:102D300070BD012070BD00003C030020480300204E
:102D40000C4808B5816941F001018161816901F098
:102D500001010091C16941F08051C161C06906491A
:102D600000F080500090486820F0E06040F0007073
:102D7000486008BD0010024000000140002809DB47
:102D800000F01F02012191404009800000F1E02085
:102D9000C0F8001170470000F0B40E4B1B68C3F37D
:102DA0000223C3F10704042C00D904241D1D072DA0
:102DB00001D2002300E0DB1E012606FA04F56D1E99
:102DC0000D409D409E40761E164045EA0601F0BC2F
:102DD00003F07AB80CED00E0064A00F00701106835
:102DE0004FF6FF03184040EA0120034908431060F2
:102DF000704700000CED00E00000FA0570B50146D8
:102E000000203C4B3C4C04293FD00BDC012957D01F
:102E1000022939D100F0D8F96168C1F38131491C28
:102E200049002FE0082943D010292DD1626821687C
:102E3000C90129D53148C2F38341415CD0031AD579
:102E4000E06A2E4A00F00F000E32105CE26AD203F4
:102E50000AD5E26AC2F30315E26A6D1CB3FBF5F30F
:102E6000C2F30322921C5343B3FBF0F048430D29F5
:102E700003D1400801E0224848436168490203D475
:102E800040000321B0FBF1F070BDE16A890311E05D
:102E90002168C900F8D5E06AE16AC0F30310401C5C
:102EA000B3FBF0F0C1F30331891C4843400070BD0F
:102EB000E16A49030029EBDBBDE8704000F094B9FA
:102EC000216AC1F30122012A03D1890701D5D00368
:102ED00070BD022A05D1616A890702D549F64040D2
:102EE00070BD032AFCD121688903F9D54FF2244033
:102EF00070BD000000127A0000100240B97A00088C
:102F000000093D002DE9F84F044600785C4D4FF074
:102F10000008C0074FF0010A4FD0E8690026C00042
:102F200008D4E86940F08050E861E869012600F0C3
:102F30008050009053480168C90511D4016881464A
:102F400041F480710160FFF7BBFE074604E0FFF724
:102F5000B7FEC01B642879D8D9F80000C005F6D5A3
:102F6000286A10F440701DD0A18801F4407181429C
:102F700018D0286A444920F44070C1F800A000220B
:102F80000A602862C0070DD0FFF79AFE074641F29B
:102F9000883904E0FFF794FEC11B494556D8286ADA
:102FA0008007F7D5286A616820F4407008432862DA
:102FB0001EB1E86920F08050E8612078800705D5CF
:102FC0006868A16820F440400843686020784007A2
:102FD00005D5E86AE16820F400300843E86220780B
:102FE000000705D5E86A216920F480200843E862DB
:102FF000E86A800305D4E86A400302D4B8F1000F00
:1030000033D02868C00028D42868400105D5E86A74
:10301000A16900F0F000884225D1E86AA16920F09A
:10302000F0000843E862E86A616920F470400843F0
:10303000E8621649C1F870A0FFF742FE064608E0B4
:1030400004E0FFF73DFE801B642802D90320BDE8A1
:10305000F88F28688000F4D507E0E86A616900F419
:103060007040884201D00120F1E72078C00605D5E4
:103070006868E16920F48000084368600020E6E7A2
:1030800000100240007000404004424200004242F2
:103090002DE9F0470D46040067D0DFF81881D8F815
:1030A000000000F00700A8420CD2D8F8001021F070
:1030B00007012943C8F80010D8F8000000F0070005
:1030C000A84252D120683C4E810712D5400703D553
:1030D000706840F4E06070602078000703D5706885
:1030E00040F4605070607068A16820F0F000084300
:1030F00070602078C00727D06068012810D0316840
:10310000022810D0890700292FDA716821F0030105
:1031100001437160FFF7D4FD074641F288390CE0A6
:1031200031688903EFE78901EDE7FFF7C9FDC11BAE
:10313000494502D90320BDE8F0877068616800F056
:103140000C00B0EB810FF0D1D8F80010404601F030
:103150000701A9420BD9016821F007012943016049
:10316000006800F00700A84201D00120E3E72078C2
:10317000400705D57068E16820F4E060084370609E
:103180002078000706D57068216920F4605040EA75
:10319000C100706000F028F87168084AC1F303119B
:1031A000515CC8400649086006480068FFF7A8FD62
:1031B0000020C0E70020024000100240D77A00083B
:1031C000480300204003002004480549006849687E
:1031D000044AC1F3C221515CC84070474803002033
:1031E00000100240E77A00082DE9F0411D4B5968B4
:1031F0001D4801F00C02042A2ED0082A2CD11B48AD
:10320000C1F38342845CC80328D5D86A174900F00B
:103210000F000E31085CD96AC90316D5D96AC1F30B
:103220000312D96A521CC1F30321891CA2FB00239B
:10323000A1FB04170C4D0026A1FB050C07FB05C5DF
:1032400001FB0651FDF76CF803E007496143B1FB50
:10325000F0F00D2C00D14008BDE8F0810448604337
:10326000FAE700000010024000127A009B7A000882
:1032700000093D002DE9F84F04006ED02078ED4D97
:10328000C00747D06868C0F38100012807D068688C
:10329000C0F38100022809D16868C00306D52868F8
:1032A000800337D5A0680028E7D033E0A068B0F5E8
:1032B000803F0BD010B1B0F5A02F11D0286820F4BA
:1032C00080302860286820F4802002E0286840F4DC
:1032D00080302860A06888B1FFF7F2FC064609E05C
:1032E000286840F480202860F0E7FFF7E9FC801BA5
:1032F000642874D828688003F7D50BE0FFF7E0FC5A
:10330000064604E0FFF7DCFC801B6428F1D828683F
:103310008003F7D42078C84E80074FF0010A4FF0A1
:1033200000073AD5686810F00C0F07D06868C0F342
:103330008100022809D16868C00306D42868800784
:1033400015D56069012808D111E06069B8B1C6F8E7
:1033500000A0FFF7B5FC804606E041E1FFF7B0FCB6
:10336000A0EB08000228C4D828688007F6D5286892
:10337000A16920F0F80040EAC10028600DE0376044
:10338000FFF79EFC804605E0FFF79AFCA0EB0800E3
:103390000228AED828688007F6D4207800072DD5FB
:1033A000A648E169E1B1C0F800A0FFF789FC8046BA
:1033B00005E0FFF785FCA0EB0800022899D8686AB1
:1033C0008007F6D59E484FF4FA510068B0FBF1F043
:1033D000009000BF0098411E0091FAD20EE0B1E0CB
:1033E0000760FFF76DFC804605E0FFF769FCA0EB86
:1033F000080002288AD8686A8007F6D42078400737
:1034000062D5E8694FF00009C00009D4E86940F0CE
:103410008050E861E8694FF0010900F080500090A9
:1034200088480168C90512D40168834641F4807157
:103430000160FFF745FC804605E0FFF741FCA0EB8B
:10344000080064287ED8DBF80000C005F5D52069A7
:1034500001280AD008B1052813D0286A20F00100FD
:103460002862286A20F0040002E0286A40F0010087
:103470002862206941F2883B90B1FFF721FC804629
:103480000AE0286A40F004002862EEE7FFF718FC23
:10349000A0EB0801594555D8286A8007F6D50CE0FD
:1034A000FFF70EFC804605E0FFF70AFCA0EB0801E1
:1034B000594547D8286A8007F6D4B9F1000F03D0E0
:1034C000E86920F08050E861E06AE0B36968C90308
:1034D00007D56968C1F38101022902D1E96AC903EC
:1034E0007ED4022808D0E86A20F48030E862B7660B
:1034F000FFF7E6FB80463BE02868C00005D5E86A98
:10350000616B00F0F00088426AD1B766FFF7D8FB24
:10351000804605E0FFF7D4FBA0EB0800642871D8D3
:1035200028680001F6D4E86A616B20F0F0000843D7
:10353000E862E86A216B20F470600843E862C6F82C
:1035400068A001E05EE016E0FFF7BAFB804605E008
:10355000FFF7B6FBA0EB0800642853D828680001E9
:10356000F6D508E0FFF7ACFBA0EB0800642849D8CB
:1035700028680001F6D4206A98B36968C1F3810114
:10358000022946D00228376603D0FFF799FB04468C
:103590003BE0FFF795FB074604E0FFF791FBC01BFC
:1035A00002282FD828688001F7D4606AB0F5803FE0
:1035B00009D1E86A61680843E862E86AE16820F0D6
:1035C0000F000843E862D4E909010843696821F45F
:1035D000741108436860C6F860A0FFF771FB01E052
:1035E00024E025E0044604E0FFF76AFB001B022804
:1035F00008D828688001F7D51AE0FFF761FB001BA7
:10360000022802D90320BDE8F88F28688001F4D48D
:103610000EE00128F7D06868626A00F480319142B8
:1036200004D1A16A00F47010884201D00120EAE7B9
:103630000020E8E7001002400000424280044242BD
:1036400048030020007000407047000038B5044671
:10365000006842688168C9434B0606D5CB0704D190
:10366000D3435B0601D4216C05E08B0708D4D34318
:103670001B0605D4616C01B02046BDE83040084708
:103680008B0601D54B0646D4D3439B0643D44B0649
:103690000AD494F85130032B3ED0636D43F00403F9
:1036A0006365C36883680093890609D4616D41F03E
:1036B0000101616581680091016821F040010160AC
:1036C000606D002827D02068416821F0E00141604A
:1036D000012084F85100900722D02068416821F031
:1036E00003014160104DE06C40B14563E06CFFF7B1
:1036F0003FF918B1606D40F040006065A06C002893
:1037000009D04563A06CFFF733F9002803D0606D42
:1037100040F04000606538BDC1688068009038BDE9
:103720002046FFF791FF38BD0554000870B504002E
:1037300009D0606A002540B125616561A56294F8F1
:10374000510040B10CE0012070BD6068B0F5827F8F
:10375000F4D0E561F2E784F85050204600F040F8DC
:10376000022084F851002068016821F040010160C6
:10377000A088218900F4827001F404410843A189E2
:1037800001F400610843217C01F002010843217D1E
:1037900001F001010843218B01F400710843217FEE
:1037A00001F03801084394F8201001F0800108432B
:1037B000218D01F40051084321680860A0690421AB
:1037C00001EA1040216848602068C16921F4006165
:1037D000C1616565012084F85100002070BD0000C2
:1037E00030B585B000240094019402940394314DC7
:1037F0000168314802220323A94227D1816941F49B
:1038000080518161816901F480510491816941F0A5
:10381000040181618069294D00F004000490A0201A
:10382000CDE90002694603932846FFF759F9402085
:10383000CDE90004694628460294FFF751F90022B9
:1038400011462320FFF7A8FA23202FE01C4DA942A0
:103850002ED1C16941F40041C161C16901F4004147
:103860000491816941F0100181618069154D00F07A
:10387000100004904FF4A050CDE900026946039374
:103880002846FFF72DF9E814CDE9000469462846DB
:103890000294FFF725F90C49486840F0B850486099
:1038A000002211463320FFF777FA3320FFF766FA3C
:1038B00005B030BD0030014000100240000801405A
:1038C000003C004000100140000001402DE9F84F8D
:1038D000044690F851001D4690468946002601286E
:1038E00001D0022693E060684FF0040BB0F5827FB0
:1038F00001D1A06820B394F8500001282AD04FF0DD
:10390000010A84F850A0FFF7DBF90746B9F1000F70
:1039100079D0B8F1000F76D084F851B000206065FE
:10392000C4F83890A4F83C80A4F83E802063A086B8
:10393000E08620646064A068B0F5004F0CD015E00C
:1039400084F851B0009313460A46204600F019F956
:10395000BDE8F88F0220FBE72068016821F04001F4
:1039600001602068016821F48041016020680168DD
:10397000490603D4016841F040010160E068B8B134
:1039800034E020688168C90709D0007BA16B08700A
:10399000A06B401CA063E08F401EE08708E0FFF7AB
:1039A0008FF9C01BA84202D3681C01D004E01DB1EE
:1039B000E08F0028E5D11CE0032626E0206881681E
:1039C000C90709D0C068A16B0880A06B801CA063E8
:1039D000E08F401EE08709E0FFF772F9C01BA842A4
:1039E00002D3681C02D0E7E7002DE5D0E08F002865
:1039F000E4D13A462946204601F00CFD08B12020CA
:103A00006065606D08B1012601E084F851A00020D6
:103A100084F8500030469BE72DE9F84F044690F8B3
:103A2000500000261D4690468A4601280ED04FF0D1
:103A3000010984F85090FFF743F9074694F85100C4
:103A40004146B346012804D0022696E00220BDE894
:103A5000F88FBAF1000F6ED0B8F1000F6BD00320D1
:103A600084F85100C4F854B0C4F830A0A4F83480ED
:103A7000A4F83680C4F838B0A4F83CB0A4F83EB03E
:103A8000C4F844B0C4F840B0A068B0F5004F09D104
:103A90002068026822F0400202602068026842F456
:103AA0008042026020680268520603D4026842F035
:103AB00040020260E068B0F5006F606803D038B380
:103AC000012925D042E008B101291BD1206B2168D2
:103AD0000088C86006E020688168890709D5216BE5
:103AE0000988C160206B801C2063E08E401EE08648
:103AF00008E0FFF7E5F8C01BA84202D3681C01D01C
:103B000004E01DB1E08E0028E5D122E0032632E07A
:103B1000206B21680078087306E0206881688907B7
:103B20000AD5216B09780173206B401C2063E08E5D
:103B3000401EE0860AE01CE0FFF7C2F8C01BA84266
:103B400002D3681C02D0E1E7002DDFD0E08E002810
:103B5000E3D13A462946204601F08AFC08B12020EC
:103B60006065A06818B92068C16880680090606DC1
:103B700008B1012601E084F8519084F850B0304635
:103B800065E72DE9FF4F81B0044690F8500001250C
:103B900000270E9E9846934601280FD0AA4684F827
:103BA00050A0FFF78DF894F85110814662684046A6
:103BB00001290DD0B2F5827F08D103E0022005B0C3
:103BC000BDE8F08FA2680AB9042901D00227C7E036
:103BD0000299002968D0BBF1000FFBD0B8F1000FAB
:103BE000F8D094F85110042902D0052184F851101E
:103BF00000216165C4F838B0A4F83E80A4F83C8088
:103C0000029A2263A4F83680A4F8348021646164A7
:103C100021680A68520603D40A6842F040020A602A
:103C2000E168B1F5006F616803D0E1B3012843D0CA
:103C30007AE009B1012838D1206B21680088C8607A
:103C4000206B801C2063E08E401EE0862DE0206803
:103C5000816889070DD5E18E59B1012D09D1216BFC
:103C60000988C160206B801C2063E08E401EE086C6
:103C7000002520688168C9070BD0E18F49B1C06871
:103C8000A16B0880A06B801CA063E08F401EE087C2
:103C90000125FFF715F8A0EB0900B04205D3701C11
:103CA00003D003275AE007E056E0E08E0028CED18B
:103CB000E08F0028CBD13DE0206B216800780873AD
:103CC000206B401C2063E08E401EE0862CE02068C4
:103CD000816889070DD5E18E59B1012D09D1216B7C
:103CE00009780173206B401C2063E08E401EE08643
:103CF000002520688168C9070BD0E18F49B1C068F1
:103D0000A16B0870A06B401CA063E08F401EE08791
:103D10000125FEF7D5FFA0EB0900B04202D3701CCD
:103D200002D0BEE7002EBCD0E08E0028CFD1E08FBD
:103D30000028CCD14A463146204601F099FB18B103
:103D40000127202060650BE0A06818B92068C168D1
:103D500080680090606D08B1012701E084F851A0EF
:103D6000002084F85000384629E710B5401EB0F115
:103D7000807F01D3012010BD4FF0E02460610F214E
:103D8000601702F0A1F80020A06107202061002048
:103D900010BD70477047000070B590F83C20012AB4
:103DA00029D0012580F83C50022280F83D2002688D
:103DB0005368946823F070060B68334353600F4BCD
:103DC00002689A420BD0B2F1804F08D00C4B9A4255
:103DD00005D00C4B9A4202D00B4B9A4204D1496851
:103DE00024F080031943916080F83D50002180F851
:103DF0003C10084670BD022070BD0000002C014040
:103E00000004004000080040000C004010B5040011
:103E100003D094F83D0010B107E0012010BD002050
:103E200084F83C00204600F01FF8022084F83D0092
:103E3000211D206801F032FC012084F8460084F83E
:103E40003E0084F83F0084F8400084F8410084F884
:103E5000420084F8430084F8440084F8450084F864
:103E60003D00002010BD000008B500681449B0F105
:103E7000804F14D0134A904220D1C86940F002000C
:103E8000C861C869002200F00200009011461D20A0
:103E9000FEF782FF1D20BDE80840FEF76FBFC8692E
:103EA00040F00100C861C869002200F001000090E4
:103EB00011461C20FEF770FF1C20ECE708BD000037
:103EC000001002400004004090F83D10012901D08C
:103ED00001207047022180F83D100168CA6842F055
:103EE0000102CA6000680D4988420BD0B0F1804FD2
:103EF00008D00B49884205D00A49884202D00A49B5
:103F0000884204D1816801F00701062903D00168C5
:103F100041F001010160002070470000002C0140C9
:103F20000004004000080040000C004070B504464A
:103F300090F83C000025012817D0012684F83C6049
:103F4000022084F83D002068826822F0770222F483
:103F50007F4282600868502838D00DDC20284FD07E
:103F600005DC90B3102811D14AE0022070BD302842
:103F700046D040280AD13BE060282FD070280DD0D1
:103F8000B0F5805F03D0B0F5005F12D0012584F852
:103F90003D60002084F83C00284670BDCB68D1E924
:103FA0000121206801F0B6FB2068816841F07701AB
:103FB00009E0CB68D1E90121206801F0ABFB206862
:103FC000816841F480418160E1E719E0CA6849688D
:103FD000206801F0B1FB5021206806E0CA684968FA
:103FE000206801F0BAFB6021206801F09DFBCEE75C
:103FF000CA684968206801F09FFB40212068F4E707
:10400000226801461046F0E7704770B50446006824
:1040100001694FF00005C943890715D4C168C94338
:10402000890711D4E91E0161012020772068806989
:104030008007204602D0FFF7E7FF04E000F098F881
:10404000204600F096F8257720680169C9434907A2
:1040500017D4C168C943490713D46FF00401016143
:10406000022020772068806910F4407F204602D02B
:10407000FFF7CAFF04E000F07BF8204600F079F873
:10408000257720680169C943090716D4C168C94367
:10409000090712D46FF0080101610420207720681D
:1040A000C0698007204602D0FFF7AEFF04E000F0B1
:1040B0005FF8204600F05DF8257720680169C94364
:1040C000C90617D4C168C943C90613D46FF01001DB
:1040D0000161082020772068C06910F4407F2046E5
:1040E00002D0FFF791FF04E000F042F8204600F014
:1040F00040F8257720680169C943C90708D1C1681C
:10410000C943C90704D1891E0161204600F032F875
:1041100020680169C943090609D4C168C943090671
:1041200005D46FF0800101612046FFF732FE206860
:104130000169C943490609D4C168C943490605D480
:104140006FF040010161204600F01EF8206801690F
:10415000C94389060BD4C168C943890607D46FF0E7
:10416000200101612046BDE87040FFF713BE70BD1D
:1041700070477047034900680968884201D101F01F
:1041800057BB70479C3C00207047000013480178E3
:10419000491C017002781249022A08D9012081F8CD
:1041A0003002B1F82002C00417D4FDF753BA91F8D9
:1041B000B92203789A4201D202200CE091F8BA2287
:1041C00003789A4201D2032005E091F8BB220078DF
:1041D000824202D2042081F8300270476802002037
:1041E0005C370020FEE7000070B5134C20790628EC
:1041F0001FD300F025F8114D002698B1E07888B162
:104200000520FEF74DFC00F01BF8012148B185F8B0
:104210002F12E670B5F82002000503D4FDF71AFA54
:1042200000E0E17000F00CF8002801D185F82F6261
:1042300070BD401C207170BD680200205C370020FA
:1042400080210148FEF732BD000C01402DE9FC5FE2
:104250003348808802F052FE0022324B02F09EFE6C
:104260000022314B02F072FC02F004FE41F23601F2
:10427000884202D94FF47A7103E0B0F5616F04D23D
:10428000002127484181BDE8FC9F002502F036FE51
:10429000CDE90010254A02EB0514D4E90223009968
:1042A00002F07AFF36D8DDE90010D4E9062302F0E7
:1042B00039FE2FD8D4E902A3D4E906019846524624
:1042C00002F0ACFFD4E9006307468B46D4E9040151
:1042D0009946324602F0A2FF3A465B4602F036FCAF
:1042E00004460F465246434602F058FE32464B46BD
:1042F00002F088FF06468846DDE9001022463B466C
:1043000002F04CFE4346324602F064FB02F0B2FD7E
:10431000034948816D1CEDB20A2DB4D20198B9E76A
:104320005C370020000059400000624088020020F5
:10433000F0B500231D460F260AE0002201EB0324FE
:10434000A718521CFD73062AFADB5B1CE673DBB26E
:104350008342F2D3F0BD08B500208DF8000028207C
:104360008DF80100684601F071FE08BD08B5002017
:104370008DF8000029208DF80100684601F066FEE6
:1043800008BD0000F0B50EA2C1B0126800231C46A3
:104390006E4640920CE0002201EB0425AF5CF7541E
:1043A0005B1C521CD2B2DBB2062AF7D3641CE4B207
:1043B0008442F0D3324640A902F089FA41B0F0BD00
:1043C00000010000F0B50FA2C1B0126800231C4626
:1043D0006E4640920DE0002201EB0425AF18521CFE
:1043E000FF7BF7545B1CD2B2DBB2062AF6D3641C07
:1043F000E4B28442EFD3324640A902F068FA41B0F9
:10440000F0BD000000240000C0F3400208B5121DFA
:1044100001EBC0108DF8002060308DF80100684677
:1044200001F014FE08BD08B5C0F34003C00100EB65
:1044300001109B1C10448DF8003060308DF8010095
:10444000684601F003FE08BD38B5C0F34004C00162
:1044500000EB81101044A41C00EB03108DF8004009
:1044600028308DF80100684601F0F0FD38BDF0B548
:10447000052914D2DFE801F003254361140000236D
:104480000BE002EB03215B1C31F8D85F11F8CA4C3A
:1044900025440D804D882C444C808342F1DBF0BDD7
:1044A00000230BE002EB03215B1C31F8D85F11F80D
:1044B000BB4C25440D804D882C444C808342F1DB5D
:1044C000F0BD002418E0002102EB04230FE05E1889
:1044D000B3F8D85016F8427F3D44A3F8D85003EB08
:1044E0004105367835F8DC7F491C3E442E8092F831
:1044F000F7508D42EBDC641C8442E4DBF0BD002409
:1045000018E0002102EB04230FE05D18B3F8D86037
:1045100015F8607F3E44A3F8D86003EB41062D7880
:1045200036F8E87F491C3D44358092F8F8508D42BA
:10453000EBDC641C8442E4DBF0BD002419E00021C4
:1045400002EB04230FE05E18B3F8D85016F8897F09
:104550003D44A3F8D85003EB4105367835F8F07F99
:10456000491C3E442E8092F8F9506D1E8D42EADCC3
:10457000641C8442E3DBF0BD08B503A00068009032
:10458000684601F063FD08BD0712000008B503A0EE
:1045900000680090684601F059FD08BD0711000051
:1045A00070B500231D46FE2609E0012201EB03241D
:1045B000A554521C062AFBDB5B1C2670DBB283422F
:1045C000F3D370BD2DE9FC4107208DF800000024D5
:1045D00014208DF8010025468DF80440022168461C
:1045E00001F044FE010A8DF802108DF8030001F07D
:1045F0004FFD6946042002F023F90C4E4FF47A7700
:104600003B46012201A90A48FFF760F99DF8040022
:1046100008B1012500E00A34B44201D2002DEFD0E8
:1046200001F02EFD2046BDE8FC810000400D030096
:10463000EC3B00202DE9F843074690460D46002646
:10464000C800FBF717FE814637B1024629463846B7
:1046500000F03AF800242AE001274A462946384665
:1046600000F032F800240DE0E0B208EB002303F183
:1046700060000090E0B24A463946483301F0B6FD8A
:104680000646641CAC42EFDB7F1CFFB2052FE4D36F
:104690000FE0E0B208EB002303F160000090E0B20D
:1046A0004A463946483301F0A1FD0646641CAC4237
:1046B000EFDB424602212846FFF7D9FE4846FBF7CA
:1046C00008FE3046BDE8F88338B50C460C210023BF
:1046D0001546012805D0022806D0032806D0042854
:1046E0001ED08DF8011004E00E2000E00D208DF8A2
:1046F00001008DF800300221684601F0B7FD010A83
:104700008DF802108DF8030001F0C2FCE006030EE4
:104710002A460421684602F09BF801F0B1FC38BD3E
:104720000F20E4E72DE9F843074690460E460025A2
:10473000C800FBF79FFD814637B102463146384637
:1047400000F03DF800242DE001274A463146384666
:1047500000F035F800240EE0E0B208EB002303F18E
:1047600042000090E0B24A4639461E3301F03EFD59
:10477000284445B2641CB442EEDB7F1CFFB2072F15
:10478000E3D311E0E0B208EB002303F1420109EBAF
:10479000C0020091E0B239461E3301F027FD2844E3
:1047A00045B2641CB442EDDB424601213046FFF7BE
:1047B0005EFE4846FBF78DFDE8B2BDE8F8837CB5A8
:1047C0000C46082115468DF80410002301280AD054
:1047D00002280AD003280CD0042825D0052825D08B
:1047E000062825D009E0042000E006208DF801000D
:1047F00001E08DF801108DF800300221684601F0CB
:1048000035FD010A8DF802108DF8030001F040FC1F
:104810009DF804002A466043C3B20421684602F0B2
:1048200017F801F02DFC7CBD0A20DFE70920DDE749
:104830000B20DBE73EB5002411480094019402945C
:104840000E498460016004730475012505614FF40D
:1048500060214460C161FDF76DF908B1FCF71CFFF0
:1048600005200094CDE9015069460548FDF7DEF8C2
:10487000002801D0FCF710FF3EBD000000240140DD
:104880006C3B0020104810B50E49016004214160C6
:1048900000214FF400228160C0E903124FF4E002CE
:1048A00042610176012242768176C27601774177B4
:1048B000FDF771FD002803D0BDE81040FCF7ECBE09
:1048C00010BD0000006400409C3B0020104810B563
:1048D0000E4901600421416000214FF400228160F3
:1048E000C0E903124FF4E0024261017601224276F0
:1048F0008176C27601774177FDF74DFD002803D020
:10490000BDE81040FCF7C8BE10BD000000680040C4
:10491000C43B00202DE9F04786B0002451480094A4
:10492000019402940394816941F0200181618169BD
:1049300001F020010491816941F0040181618169E4
:1049400001F004010491816941F0080181618169EC
:1049500001F008010491816941F0100181618069D1
:10496000DFF8048100F01000049001221421404679
:10497000FEF7A1F9DFF8F490012211464846FEF750
:104980009AF900224FF420714846FEF794F94FF44B
:10499000E065002229464046FEF78DF9DFF8D0A0F9
:1049A000012204215046FEF786F9009503260125D1
:1049B0000396CDE9015469464046FEF791F8042775
:1049C00001AA1120009782E8510069464046FEF78F
:1049D00087F81020CDE90005CDE90246694640463A
:1049E000FEF77EF84CF28000CDE9000469462148CC
:1049F0000294FEF775F84020CDE900046946484668
:104A00000294FEF76DF88120CDE900050220CDE982
:104A1000024069464846FEF763F8280200901648AF
:104A2000CDE9010469464846FEF75AF86802CDE927
:104A30000005CDE9024669464846FEF751F8CDE942
:104A40000075CDE9025669465046FEF749F8002246
:104A500001211720FEF7A0F91720FEF78FF906B005
:104A6000BDE8F0870010024000080140001001403E
:104A700000140140000C014000002110104810B546
:104A80000E4901604FF48271416000210222816071
:104A9000C0E9031201224261520282612822C0E968
:104AA0000721416281620A21C162FEF73FFE0028B0
:104AB00003D0BDE81040FCF7EFBD10BD0030014051
:104AC000EC3B0020104810B50E4901604FF4827194
:104AD000416000218160C1604FF400720161C0E952
:104AE00005120822C0E90721416281620A21C162E0
:104AF000FEF71CFE002803D0BDE81040FCF7CCBD3B
:104B000010BD0000003C0040443C002010B586B0C1
:104B100000241748009401940294039404944FF0E5
:104B200080410594016040F26711C0E90114C7217A
:104B3000C0E9031480218161FFF768F908B1FCF72F
:104B4000ABFD4FF48050009069460948FFF7EEF93D
:104B500008B1FCF7A1FD049404A905480594FFF7EA
:104B60001BF9002801D0FCF797FD06B010BD00002E
:104B70009C3C002010B586B0002418480094019495
:104B800002940394049414490594016040F2AF41E7
:104B9000C0E901144EF65F21C0E903148021816150
:104BA000FFF734F908B1FCF777FD4FF4805000901F
:104BB00069460A48FFF7BAF908B1FCF76DFD04949D
:104BC00004A906480594FFF7E7F8002801D0FCF790
:104BD00063FD06B010BD000000040040E43C00206E
:104BE000FEE7000070B5002419E000224FF47A655A
:104BF00000EBC41323F81250521CD2B20A2AF9D384
:104C000000221A2503EB4206521CD2B2B582052AB5
:104C1000F8D3044A1A620022641CE4B25A628C423D
:104C2000E3D370BD80380100FEE730B50024234691
:104C300004E0D55C5B1C2C44A4B2DBB28342F8D305
:104C40006018C0B230BD000010B5204C0122802198
:104C50002046FEF730F86420FDF722FF0022802175
:104C60002046FEF728F86420FDF71AFF0122802174
:104C70002046FEF720F86420FDF712FF0022802175
:104C80002046FEF718F86420FDF70AFF0122802174
:104C90002046FEF710F86420FDF702FF0022802175
:104CA0002046FEF708F86420FDF7FAFE0122802175
:104CB0002046FEF700F84FF47A70FDF7F1FE20462B
:104CC0000022BDE810408021FDF7F5BF0010014033
:104CD0004FF480710148FDF7E9BF0000001001406A
:104CE00010B5074B074A0E21074800F00FF8BDE842
:104CF0001040034B034A0E21034801F0D7BA0000CD
:104D000050030020981800205C3700202DE9FF4F49
:104D100081B08146002425460126029801F0C8FD95
:104D2000FFF734FC0023324601210220FFF78CFB01
:104D3000FFF748FC761CF6B20544072EF2D3029822
:104D400001F0B6FD01260023324601210220FFF7C3
:104D50007BFBFFF737FC761CF6B20544072EF2D337
:104D6000029801F0A5FD984A00200299FFF7DAFCAD
:104D7000029801F09DFDFFF709FC01260023324651
:104D800019460220FFF760FBFFF71CFC761CF6B209
:104D90000544072EF2D3029801F08AFD0126002374
:104DA000324619460220FFF74FFBFFF70BFC761C3B
:104DB000F6B20544072EF2D3FFF704FC284402F0B4
:104DC0009FFC8249824AC86100200299FFF7AAFC31
:104DD000FFF7DCFB0026D0E00398855D6F003846C6
:104DE000FBF748FA00903846FBF744FA834638460A
:104DF000FBF740FA82463846FBF73CFA7249804698
:104E0000002001EB062107E001EB4002D38B009A62
:104E100022F81030401CC0B2A842F5D36C490020E3
:104E200001EB062106E001EB4002D38B2BF810309A
:104E3000401CC0B2A842F6D3002015E000993BF810
:104E4000102031F810108A4206D9521A28F8102082
:104E500000212AF8101005E0891A2AF81010002104
:104E600028F81010401CC0B2A842E7D306FB05F09A
:104E7000002113E0462813D838F8112022B109EB9D
:104E80004003A3F85C2305E009EB40023AF8113037
:104E9000A2F85C33401C491C80B2C9B2A942E9D3D4
:104EA000002709EB470048F2C461B0F85C238A424E
:104EB00011D9B0F85E0388420DD909EB0701012032
:104EC00081F83602434981F8280299F82002C00689
:104ED00001D4FCF7BFFB7F1CBFB2452FE1D304997F
:104EE0000020A5F1010E48F2E80C012301EBC611E8
:104EF00016E00A18002782F8607008EB40077F88E8
:104F0000674503D9641C82F86030E4B23AF8107047
:104F1000674503D9641C82F86030E4B2401CC0B21B
:104F20007045E6DBB8F80020624504D9641C81F8BE
:104F30007930E4B202E0002081F87900BBF800008B
:104F4000A0F57F42FF3A0AD1002004E00A18401C75
:104F500082F86030C0B2A842F8D3641CE4B2009872
:104F6000FBF7B7F95846FBF7B4F94046FBF7B1F940
:104F70005046FBF7AEF9761CF6B202988642FFF473
:104F80002BAFECB111488179052913D911490120C2
:104F900081F8280299F82002C00601D4FCF75AFBD8
:104FA00005B04846BDE8F04F074A0B4B103A0E21BA
:104FB00001F034BA8179491C817105B0BDE8F08FE8
:104FC000024900208871F8E7A81800200C00002092
:104FD000A82600205C3700205003002010B5402197
:104FE0000348FDF763FE002800D0012010BD00003B
:104FF0000010014010B51421002000F075FF01F0F1
:105000007DFF6FF00B0202F002FD4FF06632094B9C
:1050100001F0C4FF012202F0FAFC0022064B01F06D
:10502000BDFF01F0A5FC044602F032FB03490881F4
:10503000204610BD66660A4000408F405C37002065
:105040007047000000224FF480710148FDF733BE25
:1050500000080140012211020148FDF72CBE0000AA
:10506000000801402DE9F05FA54EB07B042805D073
:10507000A4484068A44A4FF6FF713DE100F080FB70
:1050800002F006FBF080FFF7B5FF02F001FB308174
:105090009C4F083F7878401C7870B6F820024FF09B
:1050A000000500044FF0080A4FF0050B4FF0010413
:1050B00074D578780C2869D3F08801F01FFF8046FA
:1050C0008946308901F01AFF0022904B01F066FFFB
:1050D00042464B4601F03AFD00228D4B02F05CF84F
:1050E00056D2307C4FF0000438B3FBF73FFB641C12
:1050F000E4B2642CF9D30024FBF71CFB641CE4B27B
:10510000642CF9D30024FFF79DFF641CE4B2642CE7
:10511000F9D36420FDF7C4FC0024FBF727FB641CD3
:10512000E4B2642CF9D30024FBF704FB641CE4B262
:10513000642CF9D381E050462DE0FBF717FB641C8B
:10514000E4B2642CF9D30024FBF7F4FA641CE4B253
:10515000642CF9D30024FFF775FF641CE4B2642CBF
:10516000F9D36420FDF79CFC0024FBF7FFFA641CD4
:10517000E4B2642CF9D30024FBF7DCFA641CE4B23B
:10518000642CF9D396E0584605E07D70BDE8F09FA9
:1051900086F833420720B073F7E7FFE7F08801F0A5
:1051A000ADFE80468946308901F0A8FE0022574BAB
:1051B00001F0F4FE42464B4601F0C8FC0022554B7C
:1051C00001F0EAFF78787BD20828DFD3307C4FF0FB
:1051D0000004D8B3FBF7CAFAFBF7ACFAFFF732FFCB
:1051E000641CE4B2642CF5D36420FDF759FC002460
:1051F000FBF7BCFA641CE4B2642CF9D30024FBF77F
:1052000099FA641CE4B2642CF9D30024FFF71AFF66
:10521000641CE4B2642CF9D36420FDF741FC002443
:10522000FBF7A4FA641CE4B2642CF9D30024FBF766
:1052300081FA641CE4B2642CF9D3FBF791FF0028D7
:10524000A3D096F82E0200289FD174E7FFE7FBF762
:105250008DFAFBF76FFAFFF7F5FE641CE4B2642CDD
:10526000F5D36420FDF71CFC0024FBF77FFA641CD7
:10527000E4B2642CF9D30024FBF75CFA641CE4B2BA
:10528000642CF9D30024FFF7DDFE641CE4B2642C27
:10529000F9D36420FDF704FC0024FBF767FA641CD3
:1052A000E4B2642CF9D30024FBF744FA641CE4B2A2
:1052B000642CF9D300F074F80028C1D063E7FFE74D
:1052C000142801D3307C38B178782828FFF45EAFF9
:1052D000307C01287FF45AAF86F83342B6F82002BA
:1052E00000043FF559AFFCF7B5F94EE783689468C1
:1052F000A34200D1818000690028F7D146E7000071
:105300005C37002070020020A836002000005940C1
:105310000080564000C0574070B5FBF72FFA114C83
:10532000012528B184F83452D4F82002C00313D5E3
:10533000FBF708FA012805D084F83452D4F820028B
:10534000C00309D5FFF74AFE012809D084F834527A
:10535000D4F82002C00303D4FCF77CF9002070BD10
:10536000012070BD5C37002010B50024FBF7F6F972
:10537000641CE4B2642CF9D30024FBF7DBF9641C51
:10538000E4B2642CF9D30024FFF764FE641CE4B299
:10539000642CF9D3BDE810406420FDF781BB000008
:1053A00070B5FBF7EBF901250F4C012805D084F807
:1053B0003452D4F82002C00312D5FBF7C3F90128F8
:1053C00005D084F83452D4F82002C00308D5FFF782
:1053D00005FE38B184F83452D4F82002C00301D459
:1053E000002070BD012070BD5C3700200148FEF731
:1053F0002DB90000EC3B00200148FEF727B9000062
:10540000443C002010B5406A0021C187C186FEF7E8
:105410001BF910BDF8B5044640684FF482739842FA
:1054200017D1A0684FF48065B0F5004F01D0A842B5
:105430000FD12068066826F0400606606068984232
:1054400007D1A068A84204D100920B460022012196
:1054500003E000920B4600228021204600F018F85D
:10546000002804D0606D40F0200060650320F8BD86
:1054700038B50B46009204460022802100F008F85F
:10548000002804D0606D40F020006065032038BD26
:105490002DE9F8431E46914688460446089DFDF7CF
:1054A0000FFC401B351AFDF70BFC0746254800682A
:1054B000C0F3CB30684338E0701C37D0FDF700FCF8
:1054C000C01BA84203D215B1009860B32CE020683D
:1054D000416821F0E00141606068B0F5827F0BD146
:1054E000A068B0F5004F02D0B0F5806F04D12068FD
:1054F000016821F040010160A06AB0F5005F09D1A8
:105500002068016821F4005101602068016841F4BD
:1055100000510160012084F85100002084F85000FF
:105520000320BDE8F8830025401E009020688168B4
:1055300038EA010004D000204845BDD10020F0E742
:105540000120F9E7480300207047000010B50E2045
:1055500001F0AEF9FBF726FFBDE810400148FBF76C
:10556000EBBE00005C37002070B5FBF713F9FBF7CA
:1055700005F9104C012528B184F83452D4F82002E2
:10558000C00311D5FBF7DEF828B184F83452D4F803
:105590002002C00308D5FFF721FD48B184F834523A
:1055A000D4F82002C00303D4FCF754F8002070BDE7
:1055B000012070BD5C37002010B500F0E1F802F06A
:1055C00067F80C4CE080FFF715FD02F061F82081D0
:1055D000FBF7D4F884F81202FBF7B4F884F813024E
:1055E000FFF7FCFC84F8140200F014FCBDE8104046
:1055F000FBF732BE5C370020FDF768BB70B59CB08E
:1056000038216846FAF703FF14210EA8FAF7FFFEC7
:10561000202113A8FAF7FBFE012500242804CDE978
:1056200002040226CDE908600095059501944FF427
:10563000E010CDE90A046846FDF71CFE08B172B619
:10564000FEE70F20CDE90E064FF48060CDE9104053
:1056500002210EA81294FDF71BFD08B172B6FEE7F9
:105660004FF400401590139613A8FDF74BFC08B1BA
:1056700072B6FEE7014805671CB070BD00004242EB
:10568000704700000148FEF7C0BC00009C3C0020B1
:105690000148FEF7BABC0000E43C0020F0B5026807
:1056A000184C194D194E1A4F4FF0804CA04207D09C
:1056B000604505D0A84203D0B04201D0B84203D122
:1056C00022F070034A681A43A04207D0604505D013
:1056D000A84203D0B04201D0B84203D122F44073B3
:1056E000CA681A434B6922F080021A4302608A6832
:1056F000C2620A688262A04201D109690163012184
:105700004161F0BD002C0140000400400008004051
:10571000000C004010B5846842EA032224F47F4460
:105720000A432243826010BD826822F070020A435D
:1057300042F007018160704710B5046A036A23F0E4
:1057400001030362836923F0F00343EA021324F0A8
:105750000A020A438361026210BD10B5036A046A3B
:1057600024F010040462846923F0A00324F470443C
:1057700044EA023243EA01118261016210BD000075
:1057800010B51421012000F0AFFB01F0B7FB6FF062
:105790000B0202F03CF94FF06632094B01F0FEFBC0
:1057A000012202F034F90022064B01F0F7FB01F070
:1057B000DFF8044601F06CFF0349C880204610BDA5
:1057C00066660A4000408F405C370020818041803F
:1057D0000021C0E902230170016106494A683AB11B
:1057E000496800E011460A69002AFBD10861704748
:1057F00048607047700200202DE9F0410B4D6C6845
:10580000002601270DE02078022805D127702C60A2
:10581000D4E9021088472E602078012800D1267034
:105820002469002CEFD1BDE8F08100007002002057
:105830000948406802220BE0017841B94188491EBD
:105840000904090C418002D18188418002700069FD
:105850000028F1D170470000700200202DE9F047C8
:105860008A46DDE90967818ADDF820C01980818ACE
:10587000318000219146ACF8001039800A461FE0C3
:10588000002119E000EBC21404EB4104B6F80080DB
:10589000A58A454504D2358002EB82050D443D8042
:1058A000A48A1D88AC4205D91C8002EB82040C44FA
:1058B000ACF80040491CC9B24945E3D3521CD2B2EE
:1058C0005245DDD3BDE8F0872DE9FC5F17469846C9
:1058D00000228A46134612E0002108EB032404EB61
:1058E000410500EB4206521C491CB5F84850C9B2AC
:1058F000A6F8D05292B20529F1D35B1CDBB2534516
:10590000EAD3002211460BE000EB420408EB01232E
:10591000521CB3F85230491CA4F8E83392B2C9B211
:105920005145F1D3002472E00A2F6ED2062F4FF0BA
:10593000000522D324E008EB042000EB4501B0F879
:105940005200B1F848B0A0EB0B0001F0C0FA0646D7
:105950008946584601F0D2FA00222F4B01F01EFB77
:1059600032464B4601F0F2F80C9A02EBC41202EBFD
:10597000C5026D1CC2E90E01EDB2BD42DBD344E0AD
:105980000C9808EB042600EBC41906EB4500B6F8AA
:105990005210B0F848B0A1EB0B0001F098FACDE935
:1059A0000001584601F0AAFA00221B4B01F0F6FA5A
:1059B000DDE9002301F0CAF809EBC5026D1CEDB268
:1059C000C2E90E01052DE0D305251CE006EB4500DC
:1059D000B6F85210B0F84AB0A1EB0B0001F077FA1C
:1059E000CDE90001584601F089FA00220A4B01F086
:1059F000D5FADDE9002301F0A9F809EBC5026D1C19
:105A0000C2E90E01EDB2BD42E0D3641CE4B25445DC
:105A10008AD3BDE8FC9F00000000244070B50C460E
:105A2000054600F045FFFEF7A7FD284600F040FFC1
:105A300000210220FEF7E8FCFEF7C4FD284600F036
:105A400037FF22462946BDE870400020FEF7F2BD30
:105A50002DE9F74F82B000200299834688426CD22C
:105A60000025D0E06E4C4FF0000A4FF05D094FF07A
:105A70000108D4F8740101F0BBFC049A02EBCB17C7
:105A800007EBC506D6E90E2301F04CFA7ED8206854
:105A900001F0AEFCD6E90E2301F07EFBF6D80AEB4E
:105AA000090044085E4850F8240001F0A1FCD6E942
:105AB0000E2301F0A3F904D15948BC3830F8140082
:105AC00092E0574850F8240001F092FCD6E90E23EA
:105AD00001F028FA3AD27CB3514800EB84000090E0
