S3150800000010280020690100081B490008C73F00089E
S31508000010D5480008510E0008315A000800000000B3
S31508000020000000000000000000000000C5510008A4
S315080000305115000800000000094D00086D5200081F
S315080000408301000883010008830100088301000872
S315080000508301000883010008830100088301000862
S315080000608301000883010008830100088301000852
S315080000708301000883010008830100088301000842
S31508000080830100088301000883010008610E000847
S31508000090550E00088301000883010008531500085F
S315080000A08301000883010008830100088301000812
S315080000B0F952000805530008830100088301000867
S315080000C083010008830100088301000869500008BD
S315080000D083010008830100088301000883010008E2
S315080000E0830100088301000883010008000000005E
S315080000F000000000000000000000000000000000F2
S315080001000000000000000000830100087550000888
S3150800011083010008830100088301000883010008A1
S315080001208301000883010008830100088301000891
S31508000130830100080000000000000000790E000896
S31508000140830100086D0E000883010008830100087A
S31508000150DFF810D000F072FB00480047CD5C0008BD
S31508000160AFF300801028002006488047064800475D
S31508000170FEE7FEE7FEE7FEE7FEE7FEE7FEE7FEE749
S31508000180FEE7FEE7F5520008510100082DE9F05F89
S315080001900546002092469B468846064681464024E8
S315080001A01BE0284641464746224600F020F85346BB
S315080001B05A46C01A914110D311461846224600F0F5
S315080001C099FA2D1A67EB01084F46224601200021AD
S315080001D000F090FA17EB00094E41201EA4F1010425
S315080001E0DFDC484631462A464346BDE8F09F202ACA
S315080001F004DB203A21FA02F00021704721FA02F3C3
S31508000200D040C2F120029140084319467047D2B245
S3150800021001E000F8012B491EFBD270470022F6E7E1
S3150800022010B513460A4604461946FFF7F0FF20465E
S3150800023010BDF0B480EA0102D40F4200B2EB410FC0
S3150800024002D20246084611464A0042D0C30DDDB224
S31508000250C1F3C752AD1A202D35DAC1F3160141F4A0
S31508000260000204B15242C5F1200602FA06F12A41FB
S315080002701044B3EBD05F23D0C4B1012DA0EBC3501B
S3150800028009DCF0BC4FF0004202EAC352DBB200F5CB
S31508000290000000F047BA400000F1807000EBC35040
S315080002A0A0F1807040EAD170490009E0490841EAA6
S315080002B0C071A0EBC35000F50000400800EBC35026
S315080002C0F0BC00F026BA6142012202EB4101001B94
S315080002D0F6E7F0BC704781F00041AAE780F00040DD
S315080002E0A7E780EA010210B502F00043400022D0D9
S315080002F04A001FD0010E01EB1261C0F35600C2F38B
S31508000300560240F4000042F40002A0FB022000045A
S315080003107F39140400D0401C50EA124001D4400032
S31508000320491EC2B20C0604EBD010401C4008802AB5
S3150800033002D003E0002010BD20F00100002900DAF9
S315080003400020184310BD30B480EA010202F00045CF
S3150800035030F0004221F0004013D090B1C30DD40D07
S31508000360C2F31601C0F31600E41A41F4000140F482
S3150800037000027D34914201D3641C00E04900002C40
S3150800038002DA30BC002070474FF400000023914287
S3150800039001D3891A034340084FEA4101F7D151B105
S315080003A0914202D14FF0004105E002D24FF001011F
S315080003B001E06FF0010103EBC450284430BC00F0A3
S315080003C0A8B92DE9FE4F81EA030404F0004421F0A0
S315080003D0004100944FF0000B23F0004350EA01045B
S315080003E05ED052EA03045BD0C3F30A54C1F30A553C
S315080003F02C44A4F2F3340194A0FB0254C1F3130174
S3150800040041F48011C3F3130343F4801301FB024440
S3150800041000FB034E840A970A44EA815447EA835745
S31508000420A4FB076802958D0A05FB07854FEA932CFE
S3150800043004FB0C542705029D4FEA065847EA16376F
S31508000440B5EB08056EEB070C870E920E47EA811787
S3150800045042EA8312A7FB0201B6EB0B0164EB000428
S315080004602B0D43EA0C335E1844EB1C50DA46514612
S31508000470E7FB0201C5F313044FEA0B3343EA1453AF
S315080004804FEA0432019C43EA0603A4F10C040294E1
S31508000490009CCDE900B400F082F903B0BDE8F08F06
S315080004A000200146F9E72DE9F04D81EA030404F03E
S315080004B0004B21F0004514464FF0000A23F0004196
S315080004C050EA050220D054EA01021DD0C5F30A57A6
S315080004D00246C5F31303C1F31300C1F30A5640F4E9
S315080004E0801543F48013A7EB0608101BD64608F2BE
S315080004F0FD3873EB050002D308F1010801E09218F4
S315080005005B41B8F1000F03DA00200146BDE8F08D23
S3150800051000204FF48011064684460EE0171B73EB45
S31508000520050705D3121B63EB050306434CEA010CCA
S3150800053049084FEA300092185B4150EA0107EDD1AD
S3150800054052EA030012D082EA040083EA050108434E
S3150800055005D0101BAB4106D20122002306E000227B
S315080005604FF0004302E06FF0010253101AEB060049
S315080005704CEB085110EB0A0041EB0B01BDE8F04DBE
S3150800058000F0FEB870B521F0004303430CD0C1F368
S315080005900A550024D5EB040564EB0403D617AD1AF7
S315080005A0B34102DB0020014670BD201841EB025121
S315080005B070BDC10F80EAE0700844CA07962300217F
S315080005C000F0B0B896230022114600F0ABB80EB57D
S315080005D0C10F80EAE0700844CA07002140F233439D
S315080005E08DE80E000A460B4600F0D9F803B000BDA8
S315080005F00EB540F2334102910021CDE900110A46B9
S315080006000B4600F0CCF803B000BD20F00040C10D49
S31508000610C0F3160040F400007F2901DA0020704775
S31508000620962903DCC1F19601C8407047963988407F
S315080006307047000030B5041E71F1000404DB4FF06A
S315080006400044404264EB0101141E73F1000405DB0B
S315080006501C464FF00043524263EB04038B4208BF2B
S31508000660824230BD30B5041E71F1000404DB4FF040
S315080006700044404264EB0101141E73F1000405DBDB
S315080006801C464FF00043524263EB0403994208BFED
S31508000690904230BD01F0004330B421F0004150EAE9
S315080006A0010206D00A0DA2F56072C1F31301002AF1
S315080006B002DC30BC00207047440F44EAC104C10084
S315080006C0E01830BC00EBC25000F023B8002801DB6C
S315080006D0C0F10040002901DBC1F1004181427047A9
S315080006E0002801DBC0F10040002901DBC1F100410F
S315080006F088427047202A04DB203A00FA02F10020DB
S3150800070070479140C2F1200320FA03F31943904041
S3150800071070470029A8BF7047401C490008BF20F051
S315080007200100704710B4B0FA80FC00FA0CF050EAE9
S31508000730010404BF10BC704749B1CCF1200421FA6A
S3150800074004F411FA0CF118BF012121430843A3EB65
S315080007500C01CB1D4FEA00614FEA102042BF002072
S3150800076010BC704700EBC35010440029A4BF10BC4E
S315080007707047401C490008BF20F0010010BC7047B4
S3150800078010B5141E73F1000408DA401C41F100018B
S3150800079092185B411A4301D120F0010010BD2DE9E2
S315080007A0F04D92469B4611B1B1FA81F202E0B0FAD9
S315080007B080F220329046FFF79DFF04460F4640EA36
S315080007C00A0041EA0B0153465A46084313D011461C
S315080007D053EA010019D0C8F140025046FFF707FD59
S315080007E005460E46504659464246FFF783FF0843DC
S315080007F005D0012004E020463946BDE8F08D0020EA
S31508000800054346EAE0762C4337430A986305E40A2B
S31508000810A0EB08000022FD0A44EA47540A3002D534
S3150800082000200146E9E7010510196941DDE9084597
S3150800083000196941BDE8F04DA2E70000064C074DD6
S3150800084006E0E06840F0010394E807009847103492
S31508000850AC42F6D3FFF780FC4465000864650008DF
S3150800086070B58C1810F8015B15F0070301D110F864
S31508000870013B2A1106D110F8012B03E010F8016B91
S3150800088001F8016B5B1EF9D12B0705D40023521E14
S315080008900DD401F8013BFAE710F8013BCB1A921C7C
S315080008A003E013F8015B01F8015B521EF9D5A1427A
S315080008B0D8D3002070BD000070B504460068816872
S315080008C0C943C90717D1816821F00101816002F087
S315080008D00BF905460AE000BF02F006F9401B02289C
S315080008E004D920688068C043C00706D0206880689D
S315080008F0C043C007F0D0002070BDA06A40F01000C9
S31508000900A062E06A40F00100E062012070BD0000CC
S31508000910F8B500260446009600688168C943C907E9
S315080009202DD0816841F0010181601648164900689A
S31508000930B0FBF1F000E0401E00900028FBD102F069
S31508000940D3F8054616E000BF02F0CEF8401B022891
S3150800095010D920688068C043C0070BD0A06A40F051
S315080009601000A062E06A40F00100E06284F82460AA
S315080009700120F8BD20688068C043C007E4D1002084
S31508000980F8BD00000002002040420F0000224FF48C
S315080009900071014802F0A3B8000801400122510283
S315080009A0014802F09CB800000008014010B54FF459
S315080009B00041034802F08EF8002800D0012010BD3F
S315080009C0000C014000224FF40071014802F087B87C
S315080009D00010014001225102014802F080B80000CF
S315080009E00010014010B54FF48041034802F072F838
S315080009F0002800D0012010BD000C014010B504F0FD
S31508000A0085F9FFF7C3FFBDE81040FFF7DBBF00001D
S31508000A100448007C08B1002100E00121012000F013
S31508000A20D1BA00006C1E002010B500F085FB024804
S31508000A300178491C017010BDFC01002010B5FFF7B4
S31508000A40DDFF04F0CBFB06488188A1F29F1100293F
S31508000A5001DD64214181BDE8104000F0F3BE0000CD
S31508000A606C1E00202DE9F0414F4C94F8D80158B17E
S31508000A7094F8D801012802D0022805D102E0FFF730
S31508000A80A9FF01E0FFF79EFF94F8D90158B194F841
S31508000A90D901012802D0022805D102E0FFF77EFF1E
S31508000AA001E0FFF773FF94F8D8010025072601280F
S31508000AB003D194F8DA01012809D094F8DA0198B13B
S31508000AC094F8DA0101280AD002280DD10AE001209B
S31508000AD084F85401A67384F8DD51BDE8F08104F06A
S31508000AE01DF901E004F012F994F8DB012F4F68B103
S31508000AF094F8DB01012802D0022807D101E001227F
S31508000B0000E000228021384601F0E9FF94F8DC0174
S31508000B1058B194F8DC01012802D0022805D102E078
S31508000B2000F048FD01E000F03DFD94F8DD01A0B1BC
S31508000B3094F8DD01012802D002280ED102E00A202D
S31508000B40A0730AE00320A073FFF758FF00F02AFD00
S31508000B5000228021384601F0C2FF94F8DE0128B150
S31508000B6094F8DE01012801D10520A07394F8DD016F
S31508000B70022803D194F8DE0101280FD094F8DE018B
S31508000B800128AAD194F8D801012807D194F8D901E7
S31508000B90012803D194F8DA0102289ED0A67384F8B6
S31508000BA0DD5184F8DE5198E76C1E002000100140E4
S31508000BB02DE9F04704F030FA2D484178052902D28C
S31508000BC04178491C41702B4CDFF8AC90B4F84001D1
S31508000BD0000405D5FFF7E2FEFFF7FCFE04F096F8E1
S31508000BE094F8D601FFF704FD80460F46E088FFF724
S31508000BF0FFFC05460E462089FFF7FAFC00224B4605
S31508000C00FFF7DFFB2A463346FFF74DFC42463B46D5
S31508000C10FFF710FD29D2C82001F04CFE04F0ECFBCA
S31508000C20FFF7F3FCE08004F045F8FFF7EEFC2081BF
S31508000C3094F8D601FFF7DCFC80460F46E088FFF7FC
S31508000C40D7FC05460E462089FFF7D2FC00224B4604
S31508000C50FFF7B7FB2A463346FFF725FC42463B46D5
S31508000C60FFF7E8FC01D20620A073BDE8F087000074
S31508000C70FC0100206C1E00200000594010B5FFF74B
S31508000C80BDFE04F0ABFA094803218173084C61786C
S31508000C90052908D2012180F85311B0F84001000453
S31508000CA001D400F05BFC0020607010BD6C1E0020B3
S31508000CB0FC01002070B5364C0220A073D4F8400120
S31508000CC0344D00284FF001024FF08001284643D0EA
S31508000CD001F005FF642001F0EDFD00228021284681
S31508000CE001F0FDFE322001F0E5FD012280212846B3
S31508000CF001F0F5FE642001F0DDFD00228021284682
S31508000D0001F0EDFE322001F0D5FD012280212846B2
S31508000D1001F0E5FE642001F0CDFD00228021284681
S31508000D2001F0DDFE322001F0C5FD012280212846B2
S31508000D3001F0D5FE642001F0BDFD00228021284681
S31508000D4001F0CDFE322001F0B5FD012280212846B2
S31508000D5001F0C5FE642003E001F0C1FE4FF4FA700D
S31508000D6001F0A8FD00228021284601F0B8FE04F013
S31508000D7043FB03F09FFF00F007FB00F0D3FA00F0F7
S31508000D809DFAA07B072801D00320A07370BD000040
S31508000D906C1E00200010014010B504F01FFA03F085
S31508000DA011FE00282AD0184CA07B032826D103F070
S31508000DB0C5FD03F007FE002820D0A07B03281DD11F
S31508000DC004F00EF904F0E4F8002817D00420A07304
S31508000DD00E480F494068896812E082688A420ED137
S31508000DE00021017094F8D71101EB4102C2EBC11141
S31508000DF04FF6FF7202EAC1018180418010BD006989
S31508000E000028EAD110BD00006C1E0020F401002065
S31508000E10582000200D48807BC01E082815D2DFE820
S31508000E2000F00406080A0C0E1012FFF7B5BF04F00E
S31508000E30AFB8FFF7BDBEFFF721BF00F08FBBFFF7C6
S31508000E40F3BDFFF7FBBDFFF70DBE70476C1E002014
S31508000E50FEE70000014801F03AB900003C02002014
S31508000E60014801F034B900003C020020014801F0B5
S31508000E702EB9000064020020014801F028B90000DC
S31508000E80640200202DE9F04F0F461188DDF828A0EE
S31508000E9019801188AAF8001009998346002008804D
S31508000EA00B99994616460880054632E000242BE041
S31508000EB005EB451006EB8008BAF8001038F8140060
S31508000EC088420CD240F65431884208D9AAF8000064
S31508000ED03A462146284603F021FD0B99088038F842
S31508000EE01400B9F8001088420CD941F23011884232
S31508000EF008D2A9F800003A462146284603F00EFD16
S31508000F0009990880641CE4B2785DA042D0D86D1CAB
S31508000F10EDB25D45CAD3BDE8F08F70B50D460646FD
S31508000F20012405F083FA03F0A1F903F064F83046CA
S31508000F3005F07CFA304605F079FA224600210220AF
S31508000F4003F0C9F803F0B4F9641CE4B2072CF1D332
S31508000F5003F05CF8304605F069FA2A463146002067
S31508000F6003F05EFABDE8704003F080B92DE9F0435E
S31508000F709946002322E003EB4315002609EB850575
S31508000F803446EE6203EB4306C6EB431602EBC6068F
S31508000F904FF00A0C0DE000BF06EB4407FF8BB7FBCA
S31508000FA0FCF725F81470D5F82C80641C4744E4B285
S31508000FB0EF62CF5CA742EFD85B1CDBB28342DAD381
S31508000FC0BDE8F08338B50C46054603460222009173
S31508000FD0D1012E4800F096F82C482B4618224FF4DB
S31508000FE082711430009400F08DF828482B460922A7
S31508000FF04FF48E71D430009400F084F82B46012209
S3150800100040F225112248009400F07CF820482B462F
S3150800101002224FF493710830009400F073F81C48CC
S315080010202B4601224FF494711430009400F06AF8AC
S3150800103017482B4601224FF498711830009400F097
S3150800104061F813482B46012240F231111C300094F6
S3150800105000F058F80E482B4603224FF499712430B5
S31508001060009400F04FF80A482B46022240F2351148
S315080010703A30009400F046F805482B46012240F223
S3150800108037114730009400F03DF838BD6C1E00203B
S31508001090881F0020F0B589B0074601200690022077
S315080010A000910191002408210790CDE903411E46CD
S315080010B04FF47A750294012A02D00AE0641CA4B29D
S315080010C006AB3A4669460D4800F098FE08B1AC42B0
S315080010D0F4D3042000240290012E03D009B0F0BDF9
S315080010E0641CA4B207AB3A466946054800F086FE7A
S315080010F00028F3D0AC42F3D3F0E700003C0200200E
S31508001100640200202DE9F047984617460D46064624
S315080011100024DDF820900AE04B4642462946304630
S31508001120FFF7B8FF6D1C641CADB2E4B20836BC42CA
S31508001130F2D3BDE8F087000070B52C4801252C4C89
S315080011400078642802D984F84E5119E0FFF74AFC62
S31508001150012806D1FFF72AFC012802D103F09EFDDB
S3150800116030B184F85451D4F84001C00308D536E0AC
S3150800117094F84601012806D194F84001400702D4A4
S3150800118000F0ECF92BE094F8440101280AD1B4F8F0
S315080011904001000406D5FFF701FCFFF71BFC03F02E
S315080011A0B5FD1CE094F84401012818D194F84001D3
S315080011B0C00714D1FFF722FC04F010F8A07B07281B
S315080011C00DD00920A073A088A0F29F10002801DD89
S315080011D06420608100F036FB064900200870A07B79
S315080011E0072801D0012070BD002070BDFC01002039
S315080011F06C1E00200C00002078B52F480168642278
S3150800120091FBF2F1ADF80010BDF90010002904DADF
S31508001210BDF800104942ADF80010857B0124022371
S3150800122003210422052D0BD0857B082D07D1B0F8A4
S315080012308051BDF90060B54222DA80F84D4178BD8B
S315080012400568B0F87861B54202DD80F84C4178BD92
S315080012500468B0F87A51AC4202DD80F84C3178BDAA
S315080012600368B0F87C41A34202DD80F84C1178BDD2
S315080012700168B0F87E319942F9DD80F84C2178BDD5
S31508001280B0F88241BDF90050AC4202DA80F84D311F
S3150800129078BDB0F88431BDF90040A34202DA80F87F
S315080012A04D1178BDB0F88611BDF900309942F8DACB
S315080012B080F84D2178BD00006C1E0020FEB515494A
S315080012C0082004F0E3F9144B124A0621082004F01A
S315080012D047F9114A0621082004F0F2F90F4E0622B2
S315080012E0B41EA51ECDE90054231F08210A480296FC
S315080012F004F0F4F821460A4A081F04F013FFCDE962
S315080013000054231F082204490548029604F08FFE5C
S31508001310FEBD0000AC0600208C0200202E00002036
S315080013206C1E00207FB514490820FFF7F6FD134B05
S31508001330114A13490820FFF719FE114E0F4A0E3EAF
S31508001340B41EA51ECDE90054231F0D490820029698
S31508001350FFF798FD21460B4A081F04F085FF201F5A
S31508001360CDE90005CDE90246054B082203490548A3
S3150800137004F08EFE7FBD0000AC0600208C02002023
S31508001380340000206C1E002010B504F07FFC0821F4
S31508001390174803F0A0FA1749082002F071FF15490B
S315080013A0082002F011FE082005F040F8114908202F
S315080013B002F038FE0F49082002F058FE00200E4AB7
S315080013C0122106280FD2DFE800F0030507090B0DE6
S315080013D0117008E0517006E0917004E0D17002E0E7
S315080013E0117100E05171401CC0B20828E9D310BD44
S315080013F08C020020AC0600203400002010B504F052
S3150800140045FC08214E4803F066FA00204D4A122191
S3150800141006280FD2DFE800F0030507090B0D117047
S3150800142008E0517006E0917004E0D17002E0117195
S3150800143000E05171401CC0B20828E9D3424908208F
S3150800144002F01EFF4049082002F0BEFD082004F005
S31508001450D1FF3D49082002F0E5FD3B49082002F08E
S3150800146005FE04F095FB3949012088734FF45E7038
S31508001470488100224FEA020001EB42039882521C7F
S31508001480D2B2602AF8D3002201EB4203A3F8D400B3
S31508001490521CD2B2242AF7D300228B1883F82401CF
S315080014A0521CD2B20C2AF8D3A1F81C01A1F81E01CD
S315080014B0A1F82001A1F8220181F8300181F8310153
S315080014C081F8320181F8330181F8340181F8350158
S315080014D081F8360181F8440181F8450181F8460111
S315080014E081F8470181F84A0181F84B0181F84C01DE
S315080014F081F84D0181F84F0181F8500181F85101B9
S3150800150081F8520181F8530181F8540181F8550197
S3150800151000228B1883F85601521CD2B20D2AF8D332
S3150800152000228B1883F86301521CD2B2052AF8D31D
S31508001530C87304F089F9BDE8104000F095B80000BA
S315080015408C02002034000020AC0600206C1E00200F
S3150800155070474FF4807001F0C1B9000010B50C4C0B
S31508001560A07B0A2812D00B48007820B901228021D6
S31508001570094801F0B4FA00220421084801F0AFFA3C
S315080015800720A073BDE81040FFF738BA10BD000069
S315080015906C1E002028650008001001400008014064
S315080015A072B6FEE700224FF48061014801F097BA4F
S315080015B00008014001229102014801F090BA00009A
S315080015C0000801407CB50FA00F4C0068009000226F
S315080015D00421204601F083FA4FF47A752B4601223E
S315080015E069460A4802F031F92B46012201A9074843
S315080015F002F080F801220421204601F070FA9DF8D5
S3150800160004007CBD050000000014014028210020CC
S31508001610F8B5044603208DF80000080C8DF8010083
S31508001620080A8DF802000E4E15468DF803100022A2
S315080016300421304601F053FA4FF47A773B460422E8
S315080016406946084802F001F93B462A4621460548FC
S3150800165002F050F801220421304601F040FAF8BDA4
S315080016600014014028210020042291020148FFF7B6
S31508001670CFBF0000AC1F002010B501224FF4405127
S315080016800348FFF7C5FF02480F38C07B10BD0000AE
S315080016907B1E002038B5044600F026F820208DF879
S315080016A0000020098DF8010020018DF802000020B5
S315080016B00B4C8DF8030002460421204601F00FFA70
S315080016C04FF47A7304226946064802F0BEF80122EE
S315080016D00421204601F003FA00F024F838BD000082
S315080016E0001401402821002038B50BA00B4C0068D7
S315080016F0009000220421204601F0F1F94FF47A7394
S3150800170001226946064802F0A0F801220421204673
S3150800171001F0E5F938BD000006000000001401409C
S31508001720282100202DE91040FFF74CFFC007FBD108
S3150800173010BD00002DE9F74F0D4682B0164600246D
S31508001740DFF8C0A04FF47A7BC5F30749C5F307282D
S31508001750EFB222E0FFF7C8FF02208DF800008DF8EF
S3150800176001908DF802808DF80370002204215046FE
S3150800177001F0B5F95B4604226946234802F065F88C
S315080017805B4632462048029902F05FF8012204219E
S31508001790504601F0A4F9641CA4B2B4EB162FD9D3B1
S315080017A0FFF7C0FF16F0FF0F26D0FFF79DFF05EBEA
S315080017B0042002218DF80010010C8DF80110010A91
S315080017C08DF802108DF80300002204215446504675
S315080017D001F085F95D465B46042269460A4802F02F
S315080017E034F82B4632460848029902F02EF80122B0
S315080017F00421204601F073F9FFF794FF05B0BDE810
S31508001800F08F0000001401402821002010B50120A7
S31508001810FFF740FF0422BDE8104091020148FFF798
S3150800182089BF0000AC1F002010B50320FFF732FF68
S31508001830BDE8104001224FF440510148FFF77ABF36
S315080018407B1E002008B50020ADF800000648408938
S31508001850ADF800000020FFF71DFF022200216846B0
S31508001860FFF768FF08BD00006C1E002010B50420B5
S31508001870FFF710FFBDE8104070224FF48041014881
S31508001880FFF758BFD41F0020F8B500250446009579
S3150800189090F8240001280BD0012084F82400204663
S315080018A0FFF70AF82046FFF733F8060002D050E0A3
S315080018B00220F8BDA06A20F4885040F00200A06219
S315080018C0022001F0AFF925490968B1FBF0F04000A4
S315080018D000E0401E00900028FBD12068816841F096
S315080018E00801816001F000F9074608E001F0FCF8FC
S315080018F0C01B0A2803D920688068000715D4206809
S3150800190080680007F2D42068816841F0040181608C
S3150800191001F0EAF8074612E001F0E6F8C01B0A28CB
S315080019200DD920688068400709D5A06A20F0020012
S3150800193040F01000A06284F824500120F8BD206809
S3150800194080684007E8D4A06A20F0020040F0010051
S31508001950A06284F824503046F8BD0000000200203A
S31508001960F8B50024009490F824202546012A12D0C0
S31508001970012280F824204A681F23072A0DD2066808
S31508001980776B521E02EB820293409F430B6893408B
S315080019901F43776319E00220F8BD06680D2A0AD2AC
S315080019A0376BD21F02EB820293409F430B6893402A
S315080019B01F43376309E0F76A0D3A02EB8202934048
S315080019C09F430B6893401F43F7620A68072306681C
S315080019D00A2A0AD3F7680A3A02EB420293409F435F
S315080019E08B6893401F43F76008E0376902EB4202B1
S315080019F093409F438B6893401F4337610A68102AB8
S31508001A0001D0112A20D1124B02689A4217D1936845
S31508001A101B0219D4936843F40003936009681029DC
S31508001A2012D10C490C4A0968B1FBF2F101EB8101AC
S31508001A30490000E0491E00910029FBD104E0816AB3
S31508001A4041F020018162012480F824502046F8BD27
S31508001A50002401400002002040420F00806A7047BF
S31508001A600068C06C704700002DE9F0414FF0000790
S31508001A7004003D467ED0A06A002628B9E66284F8AE
S31508001A802460204600F07EF82046FEF715FFA16A7E
S31508001A90C90600D420B1A06A40F01000A06269E02F
S31508001AA0A16A21F4885141F00201A1626268E169E4
S31508001AB0237B0A4347EA43010A43A1684FF4807728
S31508001AC0B94209D0012907D05FF0000194F814C083
S31508001AD0BCF1010F02D00AE03946F7E7F3B1A36A71
S31508001AE043F02003A362E36A43F00103E362236839
S31508001AF0D3F804C02CF4694C4CEA010CC3F804C0B2
S31508001B0021688B68DFF870C003EA0C0313438B6007
S31508001B10A168B9420BD0012909D00CE0DFF85CC0F6
S31508001B20A3690CEB43330B4343F40061DFE7218AD7
S31508001B300D05A5F580152168CB6A23F470032B43A0
S31508001B40CB62216889680E4B1940914208D1E6623A
S31508001B50A16A21F0020141F00101A162BDE8F0810C
S31508001B60A06A20F0020040F01000A062E06A40F08F
S31508001B700100E0620120F1E7FDF7E1FF00E0FFFF69
S31508001B80FE0E1FFF00B585B000210091019102915C
S31508001B90039100680E49884217D10E48816941F4BD
S31508001BA000718161816901F400710491816941F0D4
S31508001BB0040181618069694600F0040004900320ED
S31508001BC000900190044800F095FE05B000BD0000A5
S31508001BD00024014000100240000801402DE9F843A6
S31508001BE000270D460446009700F07EFF80462068D1
S31508001BF08168C90508D5A06A40F02000A06284F86B
S31508001C0024700120BDE8F8834168C90503D4C06A79
S31508001C1010F4700F2AD0022001F004F83B49096835
S31508001C20B1FBF0F62068036939490B424FEA6101B6
S31508001C304FEAA1121FD1C3684FEA611C13EA0C0FC1
S31508001C4019D103690B4225D1C068104222D114204C
S31508001C5023E0681C0AD02DB100F046FFA0EB08006F
S31508001C60A84203D920680068800725D5206800683F
S31508001C708007EED52DE003690B4202D1C1681142F7
S31508001C8006D0026923490A4206D1C068084203D130
S31508001C90542002E0292000E0FC204643009816E084
S31508001CA0681C11D02DB100F01FFFA0EB0800A84258
S31508001CB00AD90098B04207D2A06A40F00400A06290
S31508001CC084F8247003209DE70098401C0090B042D9
S31508001CD0E6D321686FF012000860A06A40F400702D
S31508001CE0A06220688068C0F3424007280CD1207B98
S31508001CF050B9A06A20F48070A062A06AC00403D418
S31508001D00A06A40F00100A06200207BE700020020E4
S31508001D10244992244992240070B5044690F8240078
S31508001D2001280DD0012084F824002046FEF7F0FD96
S31508001D3002004FF0000005D084F82400104670BD5C
S31508001D40022070BDA16A40F20123994341F48071D3
S31508001D50A1621F4D23681F49AB4218D10E6816F4BD
S31508001D60702F14D0A66A46F48016A6620E68760509
S31508001D7005D5A66A26F4005646F48056A662A66AD3
S31508001D80F6040AD5E66A26F00606E66206E0A66ABC
S31508001D9026F48016A6625E68E9E7E06284F8240005
S31508001DA06FF00200186020688368C3F34243072B6C
S31508001DB005D1A84208D1096811F4702F04D08168AA
S31508001DC041F480118160B9E7816841F4A001F9E71F
S31508001DD0002801400424014090F82020012A07D059
S31508001DE0022A05D0416A41F48021416201207047E8
S31508001DF0006842690A43426100207047F0B590F8CE
S31508001E0020500468A468012D05D0022D03D0416A2C
S31508001E1041F4802157E014F0406F01D1E5004FD519
S31508001E20C4F301640125A5401D608D684FF4C07395
S31508001E309DB1CE6835434E6845EAC605066803EB8C
S31508001E400417F5514FF4C275076805EB04150E69BA
S31508001E507E51097D012905D009E00E88CD6845EA3D
S31508001E604655EBE701684E5946F480764E5111798E
S31508001E70D579567941EA056195792D0445EA06250D
S31508001E8029434FF4C676056806EB0416A95111785E
S31508001E90D57841EA0561957852782D0445EA0222FB
S31508001EA011434FF4C475026805EB041551510068D7
S31508001EB003EB0411425842F0010242500020F0BDE3
S31508001EC0416A41F4001141620120F0BD10B590F855
S31508001ED02020012A07D0022A05D0416A41F4802130
S31508001EE04162012010BD3B48D0F8002242F00102B1
S31508001EF0C0F80022D0F8002222F47C52C0F8002252
S31508001F00D0F800224B6A42EA0322C0F800220A7D72
S31508001F1002F01F0301229A40D0F81C329343C0F8FE
S31508001F201C32CB69B3B9D0F80C329343C0F80C32E3
S31508001F308C894B6864F31F434C6900EBC404C4F8EE
S31508001F4040320C890B6864F31F434C6900EBC404E8
S31508001F50C4F84432CB69012B16D1D0F80C3213439E
S31508001F60C0F80C320C884B6864F31F434C6900EBCD
S31508001F70C404C4F840320C89CB6864F31F434C6927
S31508001F8000EBC404C4F844328B69002BD0F8043241
S31508001F900ED01343C0F804320B69002BD0F8143264
S31508001FA008D01343C0F81432096A012904D008E09E
S31508001FB09343EFE79343F5E7D0F81C121143C0F8B3
S31508001FC01C12D0F8001221F00101C0F800120020FE
S31508001FD010BD000000640040704770B590F82040BE
S31508001FE0012C05D0022C03D0416A41F4802128E057
S31508001FF0046809B32469A40720D04FF4D874056887
S3150800200004EB01142D5915F00405956005682D5942
S315080020101AD0ED08556005682C5904F00204D460FE
S315080020204FF4DA74056804EB01142E5906F00F060E
S31508002030082E0CD308250DE0E468DCE7416A41F474
S3150800204000114162012070BD6D0D1560E3E72D5941
S3150800205005F00F05156105682D59C5F30725956126
S3150800206005682C59240C54614FF4DC72046802EBA1
S315080020700112A4581C700468A458240A5C700468E9
S31508002080A458240C9C700468A258120EDA704FF4F7
S31508002090DE72046802EB0112A4581C710468A45885
S315080020A0240A5C710468A458240C9C710468A2581C
S315080020B0120EDA71006829B1016941F02001016147
S315080020C0002070BDC16841F02001C160F8E72DE924
S315080020D0F05F0546006800244669D0F804908768D2
S315080020E0D0F80CB0D0F810A0D0F81880F10748D076
S315080020F0F90714D001218160B80703D5284600F0F6
S315080021003AFB0CE0780702D54FF4006407E038077D
S3150800211002D54FF4805402E0284600F02BFBF80560
S3150800212016D529684FF480708860B80503D5284607
S3150800213000F023FB0CE0780502D544F4005407E0D0
S31508002140380502D544F4804402E0284600F014FB22
S31508002150F80316D529684FF480308860B80303D58C
S31508002160284600F00CFB0CE0780302D544F4004442
S3150800217007E0380302D544F4803402E0284600F02C
S31508002180FDFA300707D55FEACB6004D52968102029
S3150800219044F40074C86070074FF0080707D55FEA73
S315080021A00B7004D52868C760284600F0B1F9B00757
S315080021B006D52868C068800702D0284600F0AAF924
S315080021C0700607D55FEACA6004D52968102044F46A
S315080021D080640861B00607D55FEA0A7004D52868E6
S315080021E00761284600F054FAF00606D52868006903
S315080021F0800702D0284600F04DFAB00308D55FEAFA
S31508002200C96005D5296810204860284600F084FA78
S31508002210F00307D55FEA097004D5286847602846A1
S3150800222000F0AEFA300446D55FEA497040D5F005AD
S3150800223004D55FEAC87001D044F00104B00504D59E
S315080022405FEA887001D544F00204700504D55FEA98
S31508002250487001D544F00404300529D518F0700FEC
S3150800226026D008F07000402815D006DC102809D0C2
S3150800227020280AD0302816D10AE050280ED0602827
S3150800228011D10EE044F008040DE044F010040AE011
S3150800229044F0200407E044F0400404E044F08004DD
S315080022A001E044F480742868816921F07001816135
S315080022B0296804204860002C05D0686A20436862B3
S315080022C02846FFF789FEBDE8F09F70B5040003D0E5
S315080022D094F8200010B104E0012070BD204600F0FB
S315080022E081F82068016841F00101016000F0FCFBFB
S315080022F00546052604E000F0F7FB401B0A2811D81E
S3150800230020684068C007F6D02068016821F00201FD
S31508002310016000F0E9FB05460BE000F0E5FB401B19
S315080023200A2806D9606A40F40030606284F82060A2
S31508002330D2E7206840688007EFD4207E012820680D
S3150800234001683DD021F080010160607E0128206887
S31508002350016838D021F040010160A07E012820687C
S31508002360016833D021F020010160E07E0128206851
S3150800237001682ED041F010010160207F01282068F5
S31508002380016829D021F008010160607F01282068D2
S31508002390016824D021F004010160D4E90201084350
S315080023A0D4E90412114308436168491E08432168A9
S315080023B0C86100206062012084F82000002070BDFA
S315080023C041F08001C0E741F04001C5E741F0200136
S315080023D0CAE721F01001CFE741F00801D4E741F040
S315080023E00401D9E770B586B00021434A00910191EE
S315080023F00291039111683F4E0368022403253F4862
S31508002400491CB34231D11160012907D1C16941F094
S315080024100071C161C16901F000710491816941F0DF
S31508002420040181618069364E00F0040004904FF47F
S31508002430006000906946304600F05CFAB014CDE9B9
S31508002440000469460395304600F054FA0022114606
S31508002450132000F0B5FB132000F0A4FB0022114660
S31508002460142000F0ADFB14203FE0264EB3423ED1C7
S31508002470C36943F08063C361C369012903F08063BC
S315080024800493116007D1C16941F00071C161C16946
S3150800249001F000710491816941F008018161806948
S315080024A0194E00F008000490202000906946304636
S315080024B000F020FA4020CDE900046946039530462D
S315080024C000F018FA1148416841F0E86141600022BD
S315080024D011463F2000F074FB3F2000F063FB00220A
S315080024E01146412000F06CFB412000F05BFB06B072
S315080024F070BD000000640040140000200010024077
S315080025000008014000680040000C0140000001403E
S31508002510704700002DE9F0438BB0044608AB01AACA
S315080025200021FFF75AFD20B1FFF73AF80BB0BDE8D6
S31508002530F08353488442F9D10198524C0025A0F5FE
S3150800254080714FF4A07904F5B47601390BD1E5739F
S31508002550FFF76AF903F078F901230E224946304657
S315080025600095FEF7CFFD0198B0F5997F11D19DF83A
S3150800257020009DF821109DF8232000EB01209DF8EE
S315080025802210090401EB02610844C4F84001FFF770
S315080025903DF93D480199428801274FF4A7789142B1
S315080025A021D14268002108AB13F801C002F801CB1B
S315080025B0491CC9B20829F7D342604188491C4180A1
S315080025C0418841450FD3A0F802904660E77303207F
S315080025D0FFF760F82B4801224FF440510F30FFF700
S315080025E0A9F8FFF743F90198404506D101230E22C1
S315080025F0494630460095FEF785FD0198B0F5A87F57
S315080026001ED0A0F54071C33990D19DF823009DF8DE
S3150800261020109DF8222000EB01609DF82110090486
S3150800262001EB02210844A0F57F41FF3905D000F1EE
S31508002630004020601548057078E784F8517175E701
S315080026409DF8200084F8D8019DF8210084F8D90166
S315080026509DF8220084F8DA019DF8230084F8DB014E
S315080026609DF8240084F8DC019DF8250084F8DD0136
S315080026709DF8260084F8DE010A20A07356E70000BC
S315080026803C0200206C1E00200C000020F0010020F7
S315080026907047000010B58AB004466B4602AA0121AD
S315080026A0FFF79BFC18B1FEF77BFF0AB010BD164872
S315080026B08442FAD1154903988842F6D19DF801005B
S315080026C09DF8001000EB01211148A0F838119DF87B
S315080026D003109DF8022001EB0221A0F83A119DF89B
S315080026E0041080F83C110121017490F83C21082A55
S315080026F006D090F83C211AB180F84E11FEF72EFF4D
S31508002700044900200870D0E764020020E550FF184D
S315080027106C1E0020FC0100207047000070B50446BE
S3150800272090F82000012804D0606A40F40020606216
S3150800273018E0022084F820002068016821F00101D1
S31508002740016000F0D1F905460EE000BF00F0CCF9B3
S31508002750401B0A2808D9606A40F4003060620520E8
S3150800276084F82000012070BD20684068C007EDD1BC
S31508002770606270BD70477047704770477047704712
S31508002780704700002DE9F05F90F821100024022917
S3150800279003D004218163012485E001680A6822F0D8
S315080027A00E020A6001680A6822F001020A603F4EBA
S315080027B03E4FB215DFF8F4C0DFF8F090DFF8ECA072
S315080027C0DFF8E8B0DFF8E4E00168783F13011502A6
S315080027D0ACF1640CA9F15009AAF13C0AABF1280B3B
S315080027E0AEF1140E4FF48018B14227D9B9420ED073
S315080027F0614512D049451DD0514518D0594518D0C4
S31508002800714501D1424615E0294EB14201D1012256
S3150800281010E0274E1436B14201D110220AE0244EA8
S315080028202836B14206D0224A3C32914201D11A4694
S3150800283000E02A461E49091F0A602BE0B94213D058
S31508002840614517D0494522D051451DD059451DD05F
S31508002850714501D142461AE0B14202D14FF0807269
S3150800286015E0134EB14201D1012210E0104E143684
S31508002870B14201D110220AE00D4E2836B14206D0E7
S315080028800B4A3C32914201D11A4600E02A460749D2
S3150800289080394A60012180F82110002180F8201033
S315080028A0416B01B188472046BDE8F09F8000024091
S315080028B00804024070B5044600F016F90546601C87
S315080028C002D004480078044400F00EF9401BA042E8
S315080028D0FAD370BD0000002070470000044910B507
S315080028E00A68024202D00860FFF7F6FF10BD000032
S315080028F0140401402DE9F84FDFF8B8910024A9F136
S31508002900040B23460F2709F1040AABF1040EC9E0AC
S315080029100125A5402A40AA427DD1674ED1F804C0B8
S31508002920ACEB0608B44532D014DCBCF1030F3AD040
S3150800293009DCBCF1000F2AD0BCF1010F1CD0BCF198
S31508002940020F31D11DE0BCF1110F17D0BCF1120FE7
S315080029502AD119E0B8F5881F19D006DCB8F5803FEA
S3150800296015D0B8F5801F1FD111E0B8F5001F0ED09D
S31508002970B8F5041F18D10AE0CB6815E0CB681B1D13
S3150800298012E0CB6808330FE0CB680C330CE08B6899
S315080029902BB1012B4FF0080303D0456104E0042353
S315080029A002E0056100E00023FF2A01D8064601E09F
S315080029B000F104064FEA840501D9A5F12005D6F8E9
S315080029C0008007FA05FC28EA0C0803FA05F548EA28
S315080029D00508C6F800804D68ED0062D5374DAE692A
S315080029E046F00106AE61AD6924F0030605F001055F
S315080029F00095334D06EB050CDCF80850A607360F94
S31508002A0007FA06F825EA0805DFF8B880404503D135
S31508002A104FF0000817E044E0DFF8AC80404502D1EB
S31508002A204FF001080FE0DFF8A480404502D14FF0CF
S31508002A30020808E0DFF89880404502D14FF0030805
S31508002A4001E04FF0040808FA06F848EA0508CCF849
S31508002A5008804D68D9F80060ED024D4601D5164349
S31508002A6000E096432E604D68DAF80060AD025546E0
S31508002A7001D5164300E096432E604D68DBF80060EA
S31508002A80AD035D4601D5164300E096432E604D68BA
S31508002A90DEF80060ED03754601D5164300E096435F
S31508002AA02E60641C0D682A46E5407FF431AFBDE808
S31508002AB0F88F0000080401400000111000100240C1
S31508002AC00000014000080140000C014000100140D0
S31508002AD0001401408068084000D0012070470AB100
S31508002AE0016170470904FBE70148806870470000E8
S31508002AF0000000200248816802781144816070470E
S31508002B0000000020074810B5016841F01001016077
S31508002B10032000F075F8002000F006F800F024F80D
S31508002B20002010BD0020024070B50D4D04464FF43C
S31508002B307A712878B1FBF0F00A490968B1FBF0F020
S31508002B4001F031F848B9102C07D200222146501E50
S31508002B5000F036F800206C6070BD012070BD0000E2
S31508002B6000000020000200200C4808B5816941F0E9
S31508002B7001018161816901F001010091C16941F09A
S31508002B808051C161C06900F08050009004484168D6
S31508002B9021F0E06141F00071416008BD001002407B
S31508002BA000000140002809DB00F01F0201219140C6
S31508002BB04009800000F1E020C0F8001170470000CD
S31508002BC0F0B40E4B1B680C46C3F30223C3F107058A
S31508002BD0042D00D90425191D072901D2002300E078
S31508002BE0DB1E012606FA05F1491E214099409E4042
S31508002BF0761E16403143F0BC02F068BF0CED00E0CB
S31508002C00064900F0070208684FF6FF03184040EA35
S31508002C100220034A10430860704700000CED00E0EC
S31508002C200000FA0570B5014600203C4A3C4C0429D0
S31508002C303FD00BDC012957D0022939D100F0D0F951
S31508002C406168C1F38131491C49002FE0082943D046
S31508002C5010292DD163682168C90129D53148C3F3E4
S31508002C608341415CD8031AD5E06A2E4B00F00F0069
S31508002C700E33185CE36ADB030AD5E36AE56AC3F335
S31508002C8003135B1CB2FBF3F2C5F30325AD1C6A43C1
S31508002C90B2FBF0F048430D2903D1400801E0224871
S31508002CA048436168490203D440000321B0FBF1F0B0
S31508002CB070BDE16A890311E02168C900F8D5E06AA8
S31508002CC0E16AC0F30310401CB2FBF0F0C1F3033114
S31508002CD0891C4843400070BDE16A49030029EBDBC3
S31508002CE0BDE8704000F08CB9226AC2F301210129BF
S31508002CF003D1920701D5C80370BD022905D1626ABE
S31508002D00920702D549F6404070BD0329FCD12168D7
S31508002D108903F9D54FF2244070BD000000127A00ED
S31508002D20001002400A65000800093D002DE9F84335
S31508002D30044600785B4DC0074FF0010951D0E86999
S31508002D400026C00008D4E86940F08050E861E869C8
S31508002D50012600F08050009053480168C90512D436
S31508002D600168804641F480710160FFF7BDFE0746A1
S31508002D7005E000BFFFF7B8FEC01B642877D8D8F86F
S31508002D800000C005F6D5286A10F440701ED0A18848
S31508002D9001F44071814219D0286A444920F44070F0
S31508002DA0C1F8009000220A602862C0070ED0FFF71B
S31508002DB09BFE074641F2883805E000BFFFF794FE00
S31508002DC0C11B414553D8286A8007F7D5286A616828
S31508002DD020F44070084328621EB1E86920F080504C
S31508002DE0E8612078800705D56868A16820F4404026
S31508002DF0084368602078400705D5E86AE16820F44A
S31508002E0000300843E8622078000705D5E86A21699A
S31508002E1020F480200843E862E86A800302D4E86A5E
S31508002E20400333D52868C00028D42868400105D552
S31508002E30E86AA16900F0F000884225D1E86AA1692C
S31508002E4020F0F0000843E862E86A616920F47040FF
S31508002E500843E8621649C1F87090FFF745FE064632
S31508002E6008E004E0FFF740FE801B642802D903202F
S31508002E70BDE8F88328688000F4D507E0E86A616948
S31508002E8000F47040884201D00120F1E72078C0069E
S31508002E9005D56868E16920F4800008436860002069
S31508002EA0E6E700000010024000700040400442427D
S31508002EB0000042422DE9F0470F46050061D0434E17
S31508002EC0306800F00700B84209D2306820F00700E1
S31508002ED038433060306800F00700B84251D128689E
S31508002EE03B4C810712D5400703D5606840F4E06083
S31508002EF060602878000703D5606840F46050606019
S31508002F006068A96820F0F000084360602878C00768
S31508002F1028D06868012810D02168022810D08907AF
S31508002F2000292EDA616821F0030101436160FFF789
S31508002F30DBFD804641F288390DE021688903EFE719
S31508002F408901EDE7FFF7D0FDA0EB0801494502D955
S31508002F500320BDE8F0876068696800F00C00B0EBF4
S31508002F60810FEFD1306800F00700B8420BD93068FE
S31508002F7020F0070038433060306800F00700B84298
S31508002F8001D00120E5E72878400705D56068E9689B
S31508002F9020F4E060084360602878000706D560687A
S31508002FA0296920F4605040EAC100606000F028F802
S31508002FB06168084AC1F30311515CC84006490860B4
S31508002FC006480068FFF7B0FD0020C2E7002002406F
S31508002FD000100240296500080002002004000020B5
S31508002FE00448054900684968044AC1F3C221515C8E
S31508002FF0C8407047000200200010024039650008EA
S315080030002DE9F0411D494A681D4802F00C03042BBE
S315080030102ED0082B2CD11B48C2F38343C45CD003A3
S3150800302028D5C86A174A00F00F000E32105CCA6A23
S31508003030D20316D5CA6AC96AC2F30312C1F30321B9
S31508003040521C891CA2FB0023A1FB04150C4F002669
S31508003050A1FB070C05FB07C501FB0651FDF796F812
S3150800306003E007496143B1FBF0F00D2C00D140089D
S31508003070BDE8F08104486043FAE70000001002400A
S3150800308000127A00EC64000800093D002DE9F84FAB
S31508003090040070D02078F14DC00749D06868C0F3A5
S315080030A08100012807D06868C0F38100022809D189
S315080030B06868C00306D52868800339D5A068002843
S315080030C0E7D035E0A068B0F5803F0BD010B1B0F579
S315080030D0A02F11D0286820F480302860286820F4B2
S315080030E0802002E0286840F480302860A06890B10B
S315080030F0FFF7FAFC06460AE0286840F480202860B4
S31508003100F0E700BFFFF7F0FC801B642876D8286834
S315080031108003F7D50CE0FFF7E7FC064605E000BF9D
S31508003120FFF7E2FC801B6428F0D828688003F7D4F0
S315080031302078CB4E80074FF001094FF000073AD5AB
S31508003140686810F00C0F07D06868C0F38100022881
S3150800315009D16868C00306D42868800715D5606950
S31508003160012808D111E06069B8B1C6F80090FFF7E8
S31508003170BBFC804606E042E1FFF7B6FCA0EB080080
S315080031800228C3D828688007F6D52868A16920F0E0
S31508003190F80040EAC10028600DE03760FFF7A4FC9C
S315080031A0804605E0FFF7A0FCA0EB08000228ADD892
S315080031B028688007F6D4207800072ED5A948E16943
S315080031C0E9B1C0F80090FFF78FFC804606E000BF23
S315080031D0FFF78AFCA0EB0800022897D8686A8007E0
S315080031E0F6D5A1484FF4FA510068B0FBF1F000900B
S315080031F000BF0098411E0091FAD20EE0B0E00760C9
S31508003200FFF772FC804605E0FFF76EFCA0EB0800AE
S31508003210022889D8686A8007F6D42078400763D5DB
S31508003220E8694FF00008C00009D4E86940F080500A
S31508003230E861E8694FF0010800F0805000908B487B
S315080032400168C90512D40168834641F4807101609A
S31508003250FFF74AFC824605E0FFF746FCA0EB0A00AA
S3150800326064287DD8DBF80000C005F5D5206901285B
S315080032700AD008B1052813D0286A20F00100286270
S31508003280286A20F0040002E0286A40F0010028625B
S31508003290206941F2883B98B1FFF726FC82460BE08D
S315080032A0286A40F004002862EEE700BFFFF71CFC1E
S315080032B0A0EB0A01594553D8286A8007F6D50CE0D1
S315080032C0FFF712FC824605E0FFF70EFCA0EB0A01A9
S315080032D0594545D8286A8007F6D4B8F1000F03D0B7
S315080032E0E86920F08050E861E06AD0B36968C903EC
S315080032F007D56968C1F38101022902D1E96AC903C0
S315080033007DD4022808D0E86A20F48030E862B766DF
S31508003310FFF7EAFB80463BE02868C00005D5E86A67
S31508003320616B00F0F000884269D1B766FFF7DCFBF5
S31508003330804605E0FFF7D8FBA0EB0800642874D8A0
S3150800334028680001F6D4E86A616B20F0F0000843AB
S31508003350E862E86A216B20F470600843E86201E0DD
S3150800336063E018E0C6F86890FFF7BEFB804605E004
S31508003370FFF7BAFBA0EB0800642856D828680001B6
S31508003380F6D508E0FFF7B0FBA0EB080064284CD898
S3150800339028680001F6D4206A90B36968C1F38101F0
S315080033A0022949D00228376603D0FFF79DFB044659
S315080033B03EE0FFF799FB074605E000BFFFF794FBE1
S315080033C0C01B022831D828688001F7D4606AB0F596
S315080033D0803F09D1E86A61680843E862E86AE168FB
S315080033E020F00F000843E862D4E909010843696838
S315080033F021F4741108436860C6F8609001E028E07B
S3150800340029E0FFF771FB044605E000BFFFF76CFBF8
S31508003410001B022809D828688001F7D51BE000BFE1
S31508003420FFF762FB001B022802D90320BDE8F88FCC
S3150800343028688001F4D40EE00128F7D06868626A2B
S3150800344000F48031914204D1A16A00F470108842D8
S3150800345001D00120EAE70020E8E70000001002405A
S3150800346000004242800442420002002000700040F0
S315080034707047000038B50446006842688168C94349
S315080034804B0606D5CB0704D1D3435B0601D4216C82
S3150800349005E08B0708D4D3431B0605D4616C01B03D
S315080034A02046BDE8304008478B0601D54B0646D472
S315080034B0D3439B0643D44B060AD494F85130032BC6
S315080034C03ED0636D43F004036365C3688368009365
S315080034D0890609D4616D41F0010161658168009131
S315080034E0016821F040010160606D002827D020683E
S315080034F0416821F0E0014160012084F851009007FD
S3150800350022D02068416821F003014160104DE06C2B
S3150800351040B14563E06CFFF735F918B1606D40F0CE
S3150800352040006065A06C002809D04563A06CFFF7D1
S3150800353029F9002803D0606D40F04000606538BD69
S31508003540C1688068009038BD2046FFF791FF38BDF6
S315080035508150000870B5040009D0606A002540B1A2
S3150800356025616561A56294F8510040B10CE001201F
S3150800357070BD6068B0F5827FF4D0E561F2E784F843
S315080035805050204600F040F8022084F85100206888
S31508003590016821F040010160A088218900F4827049
S315080035A001F404410843A18901F400610843217C20
S315080035B001F002010843217D01F001010843218B36
S315080035C001F400710843217F01F03801084394F89B
S315080035D0201001F080010843218D01F400510843B1
S315080035E021680860A069042101EA10402168486042
S315080035F02068C16921F40061C1616565012084F80C
S315080036005100002070BD000030B585B0002400943C
S31508003610019402940394314D036831480221032230
S31508003620AB4227D1836943F480538361836903F4EA
S3150800363080530493836943F0040383618069294DA9
S3150800364000F004000490A020CDE900010392694629
S315080036502846FFF74FF94020CDE900046946284679
S315080036600294FFF747F9002211462320FFF7A8FA2C
S3150800367023202FE01C4DAB422ED1C36943F40043EF
S31508003680C361C36903F400430493836943F01003D9
S3150800369083618069154D00F0100004904FF4A05026
S315080036A0CDE90001039269462846FFF723F9E81495
S315080036B0CDE90004694628460294FFF71BF90C4831
S315080036C0416841F0B8514160002211463320FFF7A6
S315080036D077FA3320FFF766FA05B030BD00300140AF
S315080036E00010024000080140003C00400010014064
S315080036F0000001402DE9F84F044690F8510098461D
S3150800370016460F460025012801D0022598E0606874
S315080037104FF0040BB0F5827F01D1A068F8B194F898
S315080037205000012826D04FF0010984F85090FFF781
S31508003730DBF98246002F7FD0002E7DD084F851B069
S3150800374000206065A763A687E6872063A086E086D3
S3150800375020646064A068B0F5004F0DD016E084F8C8
S3150800376051B013460A462046CDF8008000F024F9E9
S31508003770BDE8F88F0220FBE72068016821F04001C8
S3150800378001602068016821F48041016020680168B1
S31508003790490603D4016841F040010160E068D8B1E8
S315080037A03BE020688168C90709D0007BA16B0870D7
S315080037B0A06B401CA063E08F401EE0870CE0FFF77B
S315080037C093F9A0EB0A01414503D3B8F1FF3F03D0B3
S315080037D006E0B8F1000F03D0E08F0028E1D11FE022
S315080037E003252BE020688168C90709D0C068A16B4A
S315080037F00880A06B801CA063E08F401EE0870CE069
S31508003800FFF772F9A0EB0A01414503D3B8F1FF3F70
S3150800381003D0E5E7B8F1000FE2D0E08F0028E1D148
S3150800382052464146204601F033FC08B12020606527
S31508003830606D00E000E008B1012501E084F85190D0
S31508003840002084F85000284692E72DE9F84F0446F0
S3150800385090F850000026984615468A4601280CD04E
S31508003860012784F85070FFF73FF9814694F8510014
S31508003870B346012804D002269AE00220BDE8F88F54
S31508003880BAF1000F6FD0002D6DD0032084F85100D7
S31508003890C4F854B0C4F830A0A586E586C4F838B094
S315080038A0A4F83CB0A4F83EB0C4F844B0C4F840B09C
S315080038B0A068B0F5004F09D12068016821F04001E1
S315080038C001602068016841F4804101602068016850
S315080038D0490603D4016841F040010160E068B0F58B
S315080038E0006F606803D058B3012D29D049E008B1AC
S315080038F0012D1FD1206B21680088C86006E020686A
S315080039008168890709D5216B0988C160206B801CED
S315080039102063E08E401EE0860CE0FFF7E5F8A0EB9A
S315080039200901414503D3B8F1FF3F03D006E0B8F1DA
S31508003930000F03D0E08E0028E1D125E0032635E00C
S31508003940206B21680078087306E02068816889077B
S315080039500AD5216B09780173206B401C2063E08E21
S31508003960401EE0860DE01FE0FFF7BEF8A0EB090158
S31508003970414503D3B8F1FF3F03D0DFE7B8F1000FA5
S31508003980DCD0E08E0028E0D14A464146204601F0C8
S31508003990ADFB08B120206065A06818B92068C16829
S315080039A080680090606D08B1012601E084F85170C6
S315080039B084F850B0304661E72DE9FF4F81B00446E0
S315080039C090F8500000260E9F1D4693464FF00109B9
S315080039D001280FD04FF0010A84F850A0FFF784F8A9
S315080039E0804694F85100616801280DD0B1F5827FB0
S315080039F008D103E0022005B0BDE8F08FA16809B937
S31508003A00042801D00226C9E00298002865D0BBF137
S31508003A10000FFBD0002DF9D094F85100042802D0ED
S31508003A20052084F8510000206065C4F838B0E587A1
S31508003A30A58702992163E586A586206460642068C7
S31508003A400168490603D4016841F040010160E06855
S31508003A50B0F5006F606803D0F0B3012D47D081E060
S31508003A6008B1012D3CD1206B21680088C860206B05
S31508003A70801C2063E08E401EE08631E02068816865
S31508003A8089070FD5E18E69B1B9F1010F0AD1216B0A
S31508003A900988C160206B801C2063E08E401EE0868A
S31508003AA04FF0000920688168C9070CD0E18F51B131
S31508003AB0C068A16B0880A06B801CA063E08F401EC5
S31508003AC0E0874FF00109FFF70FF8A0EB0800B842AE
S31508003AD006D3781C04D001E009E05BE003265BE02E
S31508003AE0E08E0028CAD1E08F0028C7D140E0206BBD
S31508003AF0216800780873206B401C2063E08E401E06
S31508003B00E0862FE02068816889070FD5E18E69B1C4
S31508003B10B9F1010F0AD1216B09780173206B401C9A
S31508003B202063E08E401EE0864FF000092068816819
S31508003B30C9070CD0E18F51B1C068A16B0870A06BA2
S31508003B40401CA063E08F401EE0874FF00109FEF796
S31508003B50CBFFA0EB0800B84202D3781C02D0BAE724
S31508003B60002FB8D0E08E0028CCD1E08F0028C9D12C
S31508003B7042463946204601F0B9FA18B101262020F6
S31508003B8060650BE0A06818B92068C1688068009075
S31508003B90606D08B1012601E084F851A0002084F880
S31508003BA05000304627E710B5401EB0F1807F01D39C
S31508003BB0012010BD4FF0E02460610F21601701F06D
S31508003BC085FF0020A06107202061002010BD7047F6
S31508003BD07047000070B590F83C20012A29D00124CE
S31508003BE080F83C40022280F83D2003685A689D68A8
S31508003BF022F070060A6832435A600F4B02689A42EE
S31508003C000BD0B2F1804F08D00C4B9A4205D00C4B22
S31508003C109A4202D00B4B9A4204D1496825F0800398
S31508003C201943916080F83D40002180F83C10084611
S31508003C3070BD022070BD0000002C01400004004049
S31508003C4000080040000C004010B5040003D094F8AA
S31508003C503D0010B107E0012010BD002084F83C00AB
S31508003C60204600F01FF8022084F83D00211D206838
S31508003C7001F04EFB012084F8460084F83E0084F8E3
S31508003C803F0084F8400084F8410084F8420084F834
S31508003C90430084F8440084F8450084F83D00002079
S31508003CA010BD000008B501681448B1F1804F14D062
S31508003CB0134A914220D1C16941F00201C161C0692C
S31508003CC0002200F00200009011461D20FEF778FF42
S31508003CD01D20BDE80840FEF765BFC16941F0010136
S31508003CE0C161C069002200F00100009011461C2045
S31508003CF0FEF766FF1C20ECE708BD00000010024036
S31508003D000004004090F83D10012901D001207047B9
S31508003D10022180F83D100168CA6842F00102CA60B3
S31508003D2000680D4988420BD0B0F1804F08D00B4986
S31508003D30884205D00A49884202D00A49884204D1F5
S31508003D40816801F00701062903D0016841F00101E5
S31508003D500160002070470000002C0140000400406C
S31508003D6000080040000C004070B5044690F83C007E
S31508003D700025012817D0012684F83C60022084F823
S31508003D803D002068826822F0770222F47F42826032
S31508003D900868502838D00DDC20284FD005DC90B3B1
S31508003DA0102811D14AE0022070BD302846D040289C
S31508003DB00AD13BE060282FD070280DD0B0F5805F7F
S31508003DC003D0B0F5005F12D0012584F83D600020CD
S31508003DD084F83C00284670BDCB68D1E901212068EB
S31508003DE001F0D4FA2068816841F0770109E0CB68D0
S31508003DF0D1E90121206801F0C9FA2068816841F4F7
S31508003E0080418160E1E719E0CA684968206801F0E5
S31508003E10CFFA5021206806E0CA684968206801F090
S31508003E20D8FA6021206801F0BBFACEE7CA6849686B
S31508003E30206801F0BDFA40212068F4E722680146AF
S31508003E401046F0E7704770B50446006801694FF000
S31508003E500005C943890715D4C168C943890711D420
S31508003E60E91E0161012020772068806980072046C5
S31508003E7002D0FFF7E7FF04E000F098F8204600F0CC
S31508003E8096F8257720680169C943490717D4C16898
S31508003E90C943490713D46FF0040101610220207752
S31508003EA02068806910F4407F204602D0FFF7CAFFD9
S31508003EB004E000F07BF8204600F079F825772068C2
S31508003EC00169C943090716D4C168C943090712D449
S31508003ED06FF008010161042020772068C069800717
S31508003EE0204602D0FFF7AEFF04E000F05FF8204658
S31508003EF000F05DF8257720680169C943C90617D41B
S31508003F00C168C943C90613D46FF0100101610820BE
S31508003F1020772068C06910F4407F204602D0FFF75A
S31508003F2091FF04E000F042F8204600F040F82577BB
S31508003F3020680169C943C90708D1C168C943C907C7
S31508003F4004D1891E0161204600F032F82068016913
S31508003F50C943090609D4C168C943090605D46FF0DF
S31508003F60800101612046FFF732FE20680169C943D6
S31508003F70490609D4C168C943490605D46FF040010A
S31508003F800161204600F01EF820680169C9438906C8
S31508003F900BD4C168C943890607D46FF020010161B3
S31508003FA02046BDE87040FFF713BE70BD70477047E6
S31508003FB0034900680968884201D101F079BA704757
S31508003FC0802100207047FEE7F0B5002215460F262F
S31508003FD00EE002EB4204C4EB4214002301EBC404D6
S31508003FE0E7185B1CFD73062BFADB521CE673D2B28C
S31508003FF08242EED3F0BD08B500208DF800002820D7
S315080040008DF80100684601F0EFFD08BD08B50020EF
S315080040108DF8000029208DF80100684601F0E4FDBE
S3150800402008BD0000F0B510A2C1B012680024409285
S3150800403022466D4610E002EB4206C6EB4216002306
S3150800404001EBC606F75C2F55641C5B1CDBB2E4B2B9
S31508004050062BF7D3521CD2B28242ECD32A4640A989
S3150800406002F0F3F941B0F0BD00010000F0B511A26D
S31508004070C1B012680024409222466D4611E002EB58
S315080040804206C6EB4216002301EBC606F7185B1C70
S31508004090FF7B2F55641CDBB2E4B2062BF6D3521C09
S315080040A0D2B28242EBD32A4640A902F0CEF941B0F9
S315080040B0F0BD000000240000C0F3400208B5121D40
S315080040C001EBC0108DF8002060308DF801006846BD
S315080040D001F08AFD08BD08B5C0F34003C00100EB36
S315080040E001109B1C10448DF8003060308DF80100DB
S315080040F0684601F079FD08BD38B5C0F34004C00133
S3150800410000EB81101044A41C00EB03108DF800404E
S3150800411028308DF80100684601F066FD38BD0000BC
S31508004120F0B5052918D2DFE801F0032E51731800FF
S3150800413000210FE001EB4103C3EB411302EBC3037C
S31508004140491C33F8C05F13F8B24C25441D805D88BE
S315080041502C445C808142EDDBF0BD002110E000BFFD
S3150800416001EB4103C3EB411302EBC303491C33F8CC
S31508004170C05F13F8A34C25441D805D882C445C80E1
S315080041808142EDDBF0BD00231DE0002116E000BFF3
S3150800419003EB4304C4EB431402EBC4046518B4F8F8
S315080041A0C06015F8427F3E44A4F8C06004EB4104A1
S315080041B02D7834F8C46F491C3544258092F8DF40C1
S315080041C08C42E5DC5B1C8342DFDBF0BD00231CE090
S315080041D0002115E003EB4304C4EB431402EBC404CB
S315080041E06518B4F8C06015F8607F3E44A4F8C0604E
S315080041F004EB41042D7834F8D06F491C35442580EA
S3150800420092F8E0408C42E5DC5B1C8342E0DBF0BDC3
S3150800421000231DE0002115E003EB4304C4EB43141F
S3150800422002EBC4046518B4F8C06015F8717F3E4403
S31508004230A4F8C06004EB41042D7834F8D86F491C03
S315080042403544258092F8E140641E8C42E4DC5B1C10
S315080042508342DFDBF0BD000008B503A000680090CC
S31508004260684601F0C1FC08BD0712000008B503A0A6
S3150800427000680090684601F0B7FC08BD0711000009
S31508004280F0B500221646FE270EE002EB4204C4EB08
S315080042904214012301EBC405EE545B1C062BFBDB21
S315080042A0521C01F83470D2B28242EED3F0BD00003F
S315080042B02DE9FC4107208DF80000002414208DF814
S315080042C0010025468DF804400221684601F0DEFD0E
S315080042D0010A8DF802108DF8030001F0A7FC694663
S315080042E0042002F069F80B4E4FF47A773B46012218
S315080042F001A90948FFF7FEF99DF8040020B90A3418
S31508004300B44201D2002DF1D001F088FC2046BDE868
S31508004310FC810000400D0300D02000202DE9F84361
S31508004320054690460E460027C80001F039FD81462D
S3150800433035B102463146284600F044F8002434E0F8
S3150800434001244A463146204600F03CF8FFF784FF30
S31508004350002511E0E8B200EB4001C1EB401108EB83
S31508004360C10303F160000090E8B24A46214648338B
S3150800437001F04CFD07466D1CB542EBDB641CE4B24C
S31508004380052CDED313E0E0B200EB4001C1EB40118F
S3150800439008EBC10303F160000090E0B24A462946E3
S315080043A0483301F033FD0746641CB442EBDB424652
S315080043B002213046FFF7B4FE484601F03FFC384676
S315080043C0BDE8F88338B50C460C21002315460128AC
S315080043D005D0022806D0032806D004281ED08DF85A
S315080043E0011004E00E2000E00D208DF801008DF884
S315080043F000300221684601F049FD010A8DF80210D5
S315080044008DF8030001F012FCE006030E2A4604218B
S31508004410684601F0D9FF01F009FC38BD0F20E4E732
S315080044202DE9F843054690460F460026C80001F0D8
S31508004430B7FC814635B102463946284600F045F8AC
S31508004440002435E001244A463946204600F03DF866
S31508004450002512E0E8B200EB4001C1EB401108EB81
S31508004460C10303F142000090E8B24A4621461E33D2
S3150800447001F0CCFC304446B26D1CBD42EADB641C3C
S31508004480E4B2072CDFD315E0E0B200EB4001C1EB44
S31508004490401208EBC20303F1420109EBC002009186
S315080044A0E0B229461E3301F0B1FC304446B2641C22
S315080044B0BC42E9DB424601213846FFF731FE484651
S315080044C001F0BCFBF0B2BDE8F8837CB50C460821C8
S315080044D015468DF80410002301280AD002280AD0B0
S315080044E003280CD0042825D0052825D0062825D051
S315080044F009E0042000E006208DF8010001E08DF8AF
S3150800450001108DF800300221684601F0BFFC010A4F
S315080045108DF802108DF8030001F088FB9DF8040061
S315080045202A466043C3B20421684601F04DFF01F0F4
S3150800453075FB7CBD0A20DFE70920DDE70B20DBE7FA
S315080045403EB5002411480094019402940E498460F3
S31508004550016004730475012505614FF46021446008
S31508004560C161FDF781FA08B1FDF71AF80520009434
S31508004570CDE9015069460548FDF7F2F9002801D052
S31508004580FDF70EF83EBD0000002401400C02002095
S31508004590104810B50E4901600421416000214FF40E
S315080045A000228160C0E903124FF4E00242610176FD
S315080045B0012242768176C27601774177FDF785FE3C
S315080045C0002803D0BDE81040FCF7EABF10BD000084
S315080045D0006400403C020020104810B50E490160F6
S315080045E00821416000214FF400228160C0E90312CE
S315080045F04FF4E00242610176012242768176C27664
S3150800460001774177FDF761FE002803D0BDE8104029
S31508004610FCF7C6BF10BD0000006800406402002019
S315080046202DE9F04786B000244B4800940194029483
S315080046300394816941F020018161816901F02001BB
S315080046400491816941F004018161816901F00401E5
S315080046500491816941F008018161816901F00801CD
S315080046600491816941F0100181618069DFF8EC806D
S3150800467000F010000490012214214046FEF72FFA9C
S31508004680DFF8DC9000224FF420714846FEF727FA3F
S3150800469000224FF4E0614046FEF721FADFF8C4A095
S315080046A0012204215046FEF71AFA40F20470112737
S315080046B0CDE90007032569464046CDE90245FEF7E0
S315080046C019F910200126CDE9000669464046CDE9CC
S315080046D00245FEF70FF94CF28000CDE90004694661
S315080046E021480294FEF706F94020CDE90004694600
S315080046F048460294FEF7FEF88020CDE9000602201F
S31508004700CDE9024069464846FEF7F4F830020090C3
S315080047101648CDE9010469464846FEF7EBF87002EB
S31508004720CDE9000769464846CDE90245FEF7E2F8B5
S315080047300420CDE90006CDE9026569465046FEF734
S31508004740D9F8002201211720FEF73AFA1720FEF7BA
S3150800475029FA06B0BDE8F0870010024000080140BB
S315080047600010014000140140000C01400000211017
S31508004770104810B50E4901604FF48271416000215E
S3150800478002228160C0E9031201224261520282615B
S315080047902822C0E90721416281620A21C162FEF727
S315080047A0D9FE002803D0BDE81040FCF7F9BE10BDBD
S315080047B000300140D0200020104810B50E49016095
S315080047C04FF48271416000218160C1604FF400722C
S315080047D00161C0E905120822C0E907214162816228
S315080047E00A21C162FEF7B6FE002803D0BDE81040D4
S315080047F0FCF7D6BE10BD0000003C00402821002072
S3150800480010B586B0002417480094019402940394C6
S3150800481004944FF080410594016040F26711C0E9A5
S315080048200114C721C0E9031480218161FFF70CFA3E
S3150800483008B1FCF7B5FE4FF4805000906946094868
S31508004840FFF792FA08B1FCF7ABFE049404A90548F1
S315080048500594FFF7BFF9002801D0FCF7A1FE06B0C2
S3150800486010BD00008021002010B586B0002418482D
S3150800487000940194029403940494144905940160E5
S3150800488040F26711C0E9011440F2CF71C0E9031480
S3150800489080218161FFF7D8F908B1FCF781FE4FF452
S315080048A08050009069460A48FFF75EFA08B1FCF79F
S315080048B077FE049404A906480594FFF78BF90028A7
S315080048C001D0FCF76DFE06B010BD000000040040E4
S315080048D0C8210020FEE770B500221BE002EB421457
S315080048E000234FF47A6500EB840424F813505B1C0C
S315080048F0DBB2102BF9D300231A2504EB43065B1C05
S31508004900DBB23584062BF8D34023E3620023521C1E
S31508004910D2B223638A42E1D370BDFEE730B50024E4
S31508004920234604E0D55C5B1C2C44A4B2DBB283426C
S31508004930F8D36018401CC0B230BD000010B5204C3A
S31508004940012280212046FEF7CAF86420FDF7B2FF4F
S31508004950002280212046FEF7C2F86420FDF7AAFF50
S31508004960012280212046FEF7BAF86420FDF7A2FF4F
S31508004970002280212046FEF7B2F86420FDF79AFF50
S31508004980012280212046FEF7AAF86420FDF792FF4F
S31508004990002280212046FEF7A2F86420FDF78AFF50
S315080049A0012280212046FEF79AF84FF47A70FDF727
S315080049B081FF20460022BDE810408021FEF78FB80F
S315080049C0001001404FF480710148FEF783B80000DB
S315080049D00010014010B5074B074A0821074800F0A8
S315080049E00FF8BDE81040034B034A0821034801F0BD
S315080049F06DBA00008C020020340000206C1E0020D6
S31508004A002DE9FF5F002425460126019801F00EFDD9
S31508004A10FFF72CFC0023324601210220FFF76CFB2E
S31508004A20FFF746FC761CF6B20544072EF2D301982A
S31508004A3001F0FCFC01260023324601210220FFF783
S31508004A405BFBFFF735FC761CF6B20544072EF2D35E
S31508004A50019801F0EBFC8C4A00200199FFF7E0FC75
S31508004A60019801F0E3FCFFF701FC0126002332461A
S31508004A7019460220FFF740FBFFF71AFC761CF6B230
S31508004A800544072EF2D3019801F0D0FC0126002335
S31508004A90324619460220FFF72FFBFFF709FC761C62
S31508004AA0F6B20544072EF2D3FFF702FC2844FBF7BB
S31508004AB089FD7649764A886100200199FFF7B0FC9E
S31508004AC0FFF7D4FB0026B8E00298855D6800074624
S31508004AD001F066F98346384601F062F981463846A0
S31508004AE001F05EF98246384601F05AF9664A06EB45
S31508004AF046010746C1EB4611002002EBC10207E05A
S31508004B0002EB4003B3F81EC02BF810C0401CC0B21D
S31508004B10A842F5D35E4A002002EBC10107E000BFB8
S31508004B2001EB4002D38B29F81030401CC0B2A842D2
S31508004B30F6D30020014612E039F810303BF8102071
S31508004B40934205D99A1A27F810202AF8101004E07B
S31508004B50D21A2AF8102027F81010401CC0B2A84212
S31508004B60EAD3DDF80CC000206A1E06EB46114FF4A6
S31508004B707A6E01230CEB81011AE000BF01EB000CF1
S31508004B804FF000088CF85C8007EB4008B8F8028004
S31508004B90F04503D9641C8CF85C30E4B23AF810800E
S31508004BA0F04503D9641C8CF85C30E4B2401CC0B2F2
S31508004BB09042E3DB09EB450030F8022C42B101EBE9
S31508004BC0050C00228CF85B2030F8040C30B10AE0A2
S31508004BD04A19641C82F85B30E4B2F5E74819641C8C
S31508004BE080F85A30E4B23888704504D9641C81F8D4
S31508004BF08230E4B202E0002081F88200B9F80000B1
S31508004C00A0F57F42FF3A0AD1002004E00A18401CAA
S31508004C1082F85C30C0B2A842F8D3641CE4B25846A5
S31508004C2001F00CF8484601F009F8384601F006F894
S31508004C30504601F003F8761CF6B201988642FFF456
S31508004C4043AFECB11148C179012914D911490120A2
S31508004C5081F84801009890F84001C00601D4FCF795
S31508004C607DFC009804B0094ABDE8F05F1C320A4B87
S31508004C70082101F091B9C179491CC171BDE8FF9FAE
S31508004C8002490020C871F9E7EC0D00201800002041
S31508004C902C1500206C1E00208C02002010B5402127
S31508004CA00348FDF717FF002800D0012010BD0000BB
S31508004CB00010014010B51421002000F027FFFBF773
S31508004CC097FC6FF00B02FBF75DFC4FF066320A4B60
S31508004CD0FBF777FB4FF03332084BFBF7E4FB002278
S31508004CE0074BFBF76EFBFBF7D5FC0446FBF78DFC81
S31508004CF004490881204610BD66660A403333E33FFF
S31508004D0000408F406C1E00207047000000224FF4C0
S31508004D1080710148FDF7E3BE000801400122110237
S31508004D200148FDF7DCBE0000000801402DE9F04708
S31508004D30934CA07B042805D092484068924A4FF6C7
S31508004D40FF7119E100F058FBFBF75FFCE080FFF705
S31508004D50B1FFFBF75AFC2081B4F840014FF0080A6E
S31508004D6000044FF0050965D5207C4FF0000588B38F
S31508004D70FBF730FE6D1CEDB2642DF9D35FF000052C
S31508004D80FBF70CFE6D1CEDB2642DF9D35FF0000540
S31508004D90FFF7BCFF6D1CEDB2642DF9D36420FDF757
S31508004DA089FD0025FBF716FE6D1CEDB2642DF9D3BF
S31508004DB05FF00005FBF7F2FD6D1CEDB2642DF9D32B
S31508004DC0FCF7BAF9002833D094F84E0100282FD101
S31508004DD050462CE0FFE7FBF7FDFD6D1CEDB2642D98
S31508004DE0F9D30025FBF7DAFD6D1CEDB2642DF9D376
S31508004DF05FF00005FFF78AFF6D1CEDB2642DF9D34D
S31508004E006420FDF757FD0025FBF7E4FD6D1CEDB2A8
S31508004E10642DF9D35FF00005FBF7C0FD6D1CEDB2FC
S31508004E20642DF9D300F0F8F8002801D04846A0739D
S31508004E30BDE8F08794F8D601FBF7DAFB0746884603
S31508004E40E088FBF7D5FB05460E462089FBF7D0FB25
S31508004E5000224E4BFBF7B5FA2A463346FBF723FBEF
S31508004E603A464346FBF7FEFB74D2207C4FF000051A
S31508004E70B8B300BFFBF7AEFDFBF790FDFFF746FFA3
S31508004E806D1CEDB2642DF5D36420FDF713FD0025E6
S31508004E90FBF7A0FD6D1CEDB2642DF9D35FF000059C
S31508004EA0FBF77CFD6D1CEDB2642DF9D35FF00005B0
S31508004EB0FFF72CFF6D1CEDB2642DF9D36420FDF7C6
S31508004EC0F9FC0025FBF786FD6D1CEDB2642DF9D3C0
S31508004ED05FF00005FBF762FD6D1CEDB2642DF9D39A
S31508004EE06EE7FFE7FBF776FDFBF758FDFFF70EFFCA
S31508004EF06D1CEDB2642DF5D36420FDF7DBFC0025AF
S31508004F00FBF768FD6D1CEDB2642DF9D35FF0000563
S31508004F10FBF744FD6D1CEDB2642DF9D35FF0000577
S31508004F20FFF7F4FE6D1CEDB2642DF9D36420FDF78E
S31508004F30C1FC0025FBF74EFD6D1CEDB2642DF9D3BF
S31508004F405FF00005FBF72AFD6D1CEDB2642DF9D361
S31508004F5068E7FFE7012084F85301B4F8400100042C
S31508004F603FF566AFBDE8F047FCF7F8BA8368946882
S31508004F70A34200D1818000690028F7D158E70000D4
S31508004F806C1E0020F4010020582000200000594023
S31508004F9070B5FBF727FD114C012528B184F854514B
S31508004FA0D4F84001C00313D5FBF700FD012805D04E
S31508004FB084F85451D4F84001C00309D5FFF76EFEB2
S31508004FC0012809D084F85451D4F84001C00303D409
S31508004FD0FCF7C4FA002070BD012070BD6C1E0020CD
S31508004FE010B50024FBF7EEFC641C14F0FF04F9D09E
S31508004FF05FF00004FBF7D2FC641C14F0FF04F9D040
S315080050006420FDF757FC0024FFF788FE641C14F0A3
S31508005010FF04F9D010BD000070B5FBF7E3FC0125CD
S31508005020104C012805D084F85451D4F84001C00327
S3150800503012D5FBF7BBFC012805D084F85451D4F8E7
S315080050404001C00308D5FFF729FE48B184F854513A
S31508005050D4F84001C00303D4FCF780FA002070BDE1
S31508005060012070BD6C1E00200148FEF703BA00003F
S31508005070D02000200148FEF7FDB9000028210020B5
S3150800508010B5406A0021C187C186FEF7F1F910BD47
S31508005090F8B5044640684FF48273984217D1A06861
S315080050A04FF48065B0F5004F01D0A8420FD12068B3
S315080050B0066826F0400606606068984207D1A06830
S315080050C0A84204D100920B460022012103E0009277
S315080050D00B4600228021204600F018F8002804D04C
S315080050E0606D40F0200060650320F8BD38B50B46BA
S315080050F0009204460022802100F008F8002804D017
S31508005100606D40F020006065032038BD2DE9F84346
S315080051101E46914688460446089DFDF7E5FC401B59
S31508005120351AFDF7E1FC074625480068C0F3CB3081
S31508005130684338E0701C37D0FDF7D6FCC01BA84280
S3150800514003D215B1009860B32CE02068416821F0BD
S31508005150E00141606068B0F5827F0BD1A068B0F5C8
S31508005160004F02D0B0F5806F04D12068016821F0A5
S3150800517040010160A06AB0F5005F09D120680168A6
S3150800518021F4005101602068016841F40051016072
S31508005190012084F85100002084F850000320BDE85F
S315080051A0F8830025401E00902068816838EA0100CF
S315080051B004D000214945BDD10020F0E70121F9E7D7
S315080051C000020020704710B5082001F02FF9FCF7FF
S315080051D0A9F8BDE81040FCF771B8000070B5FBF7F8
S315080051E00DFCFBF7FFFB104C012528B184F8545140
S315080051F0D4F84001C00311D5FBF7D8FB28B184F8D1
S315080052005451D4F84001C00308D5FFF747FD48B10B
S3150800521084F85451D4F84001C00303D4FCF79EF92E
S31508005220002070BD012070BD6C1E002010B500F076
S31508005230E3F8FBF7EAF90C4CE080FFF73BFDFBF7D8
S31508005240E4F92081FBF7CEFB84F83401FBF7AEFBCB
S3150800525084F83501FFF722FD84F8360100F0EAFBF1
S31508005260BDE81040FBF7C8BF6C1E0020FDF742BC26
S3150800527070B59CB038216846FAF7D0FF14210EA8FD
S31508005280FAF7CCFF202113A8FAF7C8FF0126002455
S315080052903004CDE902040225CDE9085000960596AA
S315080052A001944FF4E010CDE90A046846FDF7EEFED6
S315080052B008B172B6FEE70F20CDE90E054FF48060FF
S315080052C0CDE9104002210EA81294FDF7F3FD08B1AE
S315080052D072B6FEE74FF400401590139513A8FDF734
S315080052E025FD08B172B6FEE7014806671CB070BD19
S315080052F000004242704700000148FEF7A4BD0000C6
S31508005300802100200148FEF79EBD0000C82100202C
S31508005310F0B50268194B1A4C1A4D1B4E4FF08047D0
S31508005320984207D0B84205D0A04203D0A84201D07F
S31508005330B04204D122F0700C4A6842EA0C02984244
S3150800534007D0B84205D0A04203D0A84201D0B04247
S3150800535003D122F44074CA6822434C6922F08002C1
S31508005360224302608A68C2620A688262984201D150
S315080053700969016301214161F0BD0000002C01406B
S315080053800004004000080040000C004010B5846886
S3150800539042EA032224F47F440A432243826010BD72
S315080053A0826822F070020A4342F007018160704762
S315080053B010B5036A046A24F001040462846924F0BF
S315080053C0F00444EA021423F00A020A4384610262E2
S315080053D010BD10B5036A046A24F0100404628469D7
S315080053E023F0A00324F4704444EA023243EA01118C
S315080053F08261016210BD000010B51421012000F081
S3150800540085FBFBF7F5F86FF00B02FBF7BBF84FF0DF
S3150800541066320A4BFAF7D5FF4FF03332084BFBF7E3
S3150800542042F80022074BFAF7CCFFFBF733F904469C
S31508005430FBF7EBF80449C880204610BD66660A40AB
S315080054403333E33F00408F406C1E0020818041804B
S315080054500021C0E902230170016106494A683AB190
S31508005460496800E011460A69002AFBD108617047BD
S3150800547048607047F40100202DE9F0410B4D6C6837
S31508005480002601270DE02078022805D127702C6018
S31508005490D4E9021088472E602078012800D12670AA
S315080054A02469002CEFD1BDE8F0810000F40100204A
S315080054B00948406802220BE0017841B94188491E33
S315080054C00904090C418002D1818841800270006973
S315080054D00028F1D170470000F40100202DE9F047BB
S315080054E0048CDDE90969DDF820A01C80048C348071
S315080054F00024AAF80040A9F8004025462BE000241D
S3150800550025E000BF05EB451700EB870707EB4407C7
